{"contracts/PredictionMarket.sol":{"PredictionMarket":{"abi":[{"inputs":[],"stateMutability":"nonpayable","type":"constructor"},{"anonymous":false,"inputs":[{"indexed":true,"internalType":"uint256","name":"marketId","type":"uint256"},{"indexed":true,"internalType":"address","name":"user","type":"address"},{"indexed":false,"internalType":"bool","name":"outcome","type":"bool"},{"indexed":false,"internalType":"uint256","name":"amount","type":"uint256"}],"name":"BetPlaced","type":"event"},{"anonymous":false,"inputs":[{"indexed":true,"internalType":"uint256","name":"marketId","type":"uint256"},{"indexed":true,"internalType":"address","name":"user","type":"address"},{"indexed":false,"internalType":"uint256","name":"amount","type":"uint256"}],"name":"EmergencyWithdrawn","type":"event"},{"anonymous":false,"inputs":[{"indexed":true,"internalType":"uint256","name":"marketId","type":"uint256"},{"indexed":false,"internalType":"string","name":"question","type":"string"},{"indexed":false,"internalType":"uint256","name":"endTime","type":"uint256"}],"name":"MarketCreated","type":"event"},{"anonymous":false,"inputs":[{"indexed":true,"internalType":"uint256","name":"marketId","type":"uint256"},{"indexed":false,"internalType":"bool","name":"outcome","type":"bool"}],"name":"MarketResolved","type":"event"},{"anonymous":false,"inputs":[{"indexed":true,"internalType":"uint256","name":"marketId","type":"uint256"},{"indexed":true,"internalType":"address","name":"user","type":"address"},{"indexed":false,"internalType":"uint256","name":"amount","type":"uint256"}],"name":"WinningsClaimed","type":"event"},{"inputs":[],"name":"admin","outputs":[{"internalType":"address","name":"","type":"address"}],"stateMutability":"view","type":"function"},{"inputs":[{"internalType":"uint256","name":"_marketId","type":"uint256"},{"internalType":"bool","name":"_outcome","type":"bool"}],"name":"bet","outputs":[],"stateMutability":"payable","type":"function"},{"inputs":[{"internalType":"uint256","name":"_marketId","type":"uint256"}],"name":"claim","outputs":[],"stateMutability":"nonpayable","type":"function"},{"inputs":[{"internalType":"string","name":"_question","type":"string"},{"internalType":"uint256","name":"_duration","type":"uint256"}],"name":"createMarket","outputs":[],"stateMutability":"nonpayable","type":"function"},{"inputs":[],"name":"emergencyReset","outputs":[],"stateMutability":"nonpayable","type":"function"},{"inputs":[{"internalType":"uint256","name":"_marketId","type":"uint256"}],"name":"emergencyWithdraw","outputs":[],"stateMutability":"nonpayable","type":"function"},{"inputs":[{"internalType":"uint256","name":"_marketId","type":"uint256"},{"internalType":"address","name":"_user","type":"address"}],"name":"getUserBet","outputs":[{"internalType":"uint256","name":"yesAmount","type":"uint256"},{"internalType":"uint256","name":"noAmount","type":"uint256"},{"internalType":"bool","name":"claimed","type":"bool"}],"stateMutability":"view","type":"function"},{"inputs":[],"name":"marketCount","outputs":[{"internalType":"uint256","name":"","type":"uint256"}],"stateMutability":"view","type":"function"},{"inputs":[{"internalType":"uint256","name":"","type":"uint256"}],"name":"markets","outputs":[{"internalType":"string","name":"question","type":"string"},{"internalType":"uint256","name":"endTime","type":"uint256"},{"internalType":"uint256","name":"yesPool","type":"uint256"},{"internalType":"uint256","name":"noPool","type":"uint256"},{"internalType":"bool","name":"resolved","type":"bool"},{"internalType":"bool","name":"outcome","type":"bool"}],"stateMutability":"view","type":"function"},{"inputs":[],"name":"resetAfterMarketId","outputs":[{"internalType":"uint256","name":"","type":"uint256"}],"stateMutability":"view","type":"function"},{"inputs":[{"internalType":"uint256","name":"_marketId","type":"uint256"},{"internalType":"bool","name":"_outcome","type":"bool"}],"name":"resolveMarket","outputs":[],"stateMutability":"nonpayable","type":"function"}],"evm":{"bytecode":{"linkReferences":{},"object":"608060405234801561001057600080fd5b5033600360006101000a81548173ffffffffffffffffffffffffffffffffffffffff021916908373ffffffffffffffffffffffffffffffffffffffff160217905550612379806100616000396000f3fe60806040526004361061009c5760003560e01c8063883c84c111610064578063883c84c11461015e5780639a6d3aaa14610187578063b1283e77146101a3578063c03fb87c146101e5578063ec97908214610224578063f851a4401461024f5761009c565b80630f09749a146100a157806316388836146100cc578063379607f5146100e35780635312ea8e1461010c57806357bde44614610135575b600080fd5b3480156100ad57600080fd5b506100b661027a565b6040516100c391906113ab565b60405180910390f35b3480156100d857600080fd5b506100e1610280565b005b3480156100ef57600080fd5b5061010a60048036038101906101059190611406565b61031b565b005b34801561011857600080fd5b50610133600480360381019061012e9190611406565b6107e7565b005b34801561014157600080fd5b5061015c6004803603810190610157919061146b565b610b9c565b005b34801561016a57600080fd5b50610185600480360381019061018091906115f1565b610d96565b005b6101a1600480360381019061019c919061146b565b610f0e565b005b3480156101af57600080fd5b506101ca60048036038101906101c59190611406565b61118c565b6040516101dc969594939291906116db565b60405180910390f35b3480156101f157600080fd5b5061020c600480360381019061020791906117a1565b61126a565b60405161021b939291906117e1565b60405180910390f35b34801561023057600080fd5b50610239611366565b60405161024691906113ab565b60405180910390f35b34801561025b57600080fd5b5061026461136c565b6040516102719190611827565b60405180910390f35b60015481565b600360009054906101000a900473ffffffffffffffffffffffffffffffffffffffff1673ffffffffffffffffffffffffffffffffffffffff163373ffffffffffffffffffffffffffffffffffffffff1614610310576040517f08c379a00000000000000000000000000000000000000000000000000000000081526004016103079061188e565b60405180910390fd5b600054600181905550565b600154811161035f576040517f08c379a0000000000000000000000000000000000000000000000000000000008152600401610356906118fa565b60405180910390fd5b60006002600083815260200190815260200160002090508060040160009054906101000a900460ff166103c7576040517f08c379a00000000000000000000000000000000000000000000000000000000081526004016103be90611966565b60405180910390fd5b8060070160003373ffffffffffffffffffffffffffffffffffffffff1673ffffffffffffffffffffffffffffffffffffffff16815260200190815260200160002060009054906101000a900460ff1615610456576040517f08c379a000000000000000000000000000000000000000000000000000000000815260040161044d906119d2565b60405180910390fd5b60008060008360040160019054906101000a900460ff16156104c9578360050160003373ffffffffffffffffffffffffffffffffffffffff1673ffffffffffffffffffffffffffffffffffffffff168152602001908152602001600020549250836002015491508360030154905061051c565b8360060160003373ffffffffffffffffffffffffffffffffffffffff1673ffffffffffffffffffffffffffffffffffffffff16815260200190815260200160002054925083600301549150836002015490505b6000831161055f576040517f08c379a000000000000000000000000000000000000000000000000000000000815260040161055690611a3e565b60405180910390fd5b60018460070160003373ffffffffffffffffffffffffffffffffffffffff1673ffffffffffffffffffffffffffffffffffffffff16815260200190815260200160002060006101000a81548160ff021916908315150217905550600081836105c79190611a8d565b905060008382866105d89190611ac1565b6105e29190611b32565b9050600060646005836105f59190611ac1565b6105ff9190611b32565b90506000818361060f9190611b63565b90506000600360009054906101000a900473ffffffffffffffffffffffffffffffffffffffff1673ffffffffffffffffffffffffffffffffffffffff168360405161065990611bc8565b60006040518083038185875af1925050503d8060008114610696576040519150601f19603f3d011682016040523d82523d6000602084013e61069b565b606091505b50509050806106df576040517f08c379a00000000000000000000000000000000000000000000000000000000081526004016106d690611c29565b60405180910390fd5b60003373ffffffffffffffffffffffffffffffffffffffff168360405161070590611bc8565b60006040518083038185875af1925050503d8060008114610742576040519150601f19603f3d011682016040523d82523d6000602084013e610747565b606091505b505090508061078b576040517f08c379a000000000000000000000000000000000000000000000000000000000815260040161078290611c95565b60405180910390fd5b3373ffffffffffffffffffffffffffffffffffffffff168b7f5380cf6fe903b40c6d5a9e0dfbca2f3a423f0a21520b4d5947ed5169bdba946d856040516107d291906113ab565b60405180910390a35050505050505050505050565b60015481111561082c576040517f08c379a000000000000000000000000000000000000000000000000000000000815260040161082390611d01565b60405180910390fd5b60006002600083815260200190815260200160002090508060070160003373ffffffffffffffffffffffffffffffffffffffff1673ffffffffffffffffffffffffffffffffffffffff16815260200190815260200160002060009054906101000a900460ff16156108d2576040517f08c379a00000000000000000000000000000000000000000000000000000000081526004016108c9906119d2565b60405180910390fd5b60008160050160003373ffffffffffffffffffffffffffffffffffffffff1673ffffffffffffffffffffffffffffffffffffffff16815260200190815260200160002054905060008260060160003373ffffffffffffffffffffffffffffffffffffffff1673ffffffffffffffffffffffffffffffffffffffff1681526020019081526020016000205490506000818361096c9190611a8d565b9050600081116109b1576040517f08c379a00000000000000000000000000000000000000000000000000000000081526004016109a890611d6d565b60405180910390fd5b60008460050160003373ffffffffffffffffffffffffffffffffffffffff1673ffffffffffffffffffffffffffffffffffffffff1681526020019081526020016000208190555060008460060160003373ffffffffffffffffffffffffffffffffffffffff1673ffffffffffffffffffffffffffffffffffffffff1681526020019081526020016000208190555060018460070160003373ffffffffffffffffffffffffffffffffffffffff1673ffffffffffffffffffffffffffffffffffffffff16815260200190815260200160002060006101000a81548160ff02191690831515021790555060003373ffffffffffffffffffffffffffffffffffffffff1682604051610abf90611bc8565b60006040518083038185875af1925050503d8060008114610afc576040519150601f19603f3d011682016040523d82523d6000602084013e610b01565b606091505b5050905080610b45576040517f08c379a0000000000000000000000000000000000000000000000000000000008152600401610b3c90611c95565b60405180910390fd5b3373ffffffffffffffffffffffffffffffffffffffff16867fafe87099d21cd68765ccb431a535ca7a632ac9f66e04e99c9574fb5ddfdefca784604051610b8c91906113ab565b60405180910390a3505050505050565b600360009054906101000a900473ffffffffffffffffffffffffffffffffffffffff1673ffffffffffffffffffffffffffffffffffffffff163373ffffffffffffffffffffffffffffffffffffffff1614610c2c576040517f08c379a0000000000000000000000000000000000000000000000000000000008152600401610c239061188e565b60405180910390fd5b6001548211610c70576040517f08c379a0000000000000000000000000000000000000000000000000000000008152600401610c67906118fa565b60405180910390fd5b60006002600084815260200190815260200160002090508060040160009054906101000a900460ff1615610cd9576040517f08c379a0000000000000000000000000000000000000000000000000000000008152600401610cd090611dd9565b60405180910390fd5b8060010154421015610d20576040517f08c379a0000000000000000000000000000000000000000000000000000000008152600401610d1790611e45565b60405180910390fd5b60018160040160006101000a81548160ff021916908315150217905550818160040160016101000a81548160ff021916908315150217905550827f4927fe38919783250023d27e65a3e56b6b5c3e49364e51674a41ef08d62460d983604051610d899190611e65565b60405180910390a2505050565b600360009054906101000a900473ffffffffffffffffffffffffffffffffffffffff1673ffffffffffffffffffffffffffffffffffffffff163373ffffffffffffffffffffffffffffffffffffffff1614610e26576040517f08c379a0000000000000000000000000000000000000000000000000000000008152600401610e1d9061188e565b60405180910390fd5b600080815480929190610e3890611e80565b919050555060006002600080548152602001908152602001600020905060008160040160006101000a81548160ff02191690831515021790555060008160040160016101000a81548160ff021916908315150217905550600081600201819055506000816003018190555082816000019081610eb491906120d4565b508142610ec19190611a8d565b81600101819055506000547f2d1e9ad45dbe8e898e0374deebf2a661b2ae7c1855d2a29507d584c35d287c75848360010154604051610f019291906121a6565b60405180910390a2505050565b6001548211610f52576040517f08c379a0000000000000000000000000000000000000000000000000000000008152600401610f49906118fa565b60405180910390fd5b600060026000848152602001908152602001600020905080600101544210610faf576040517f08c379a0000000000000000000000000000000000000000000000000000000008152600401610fa690612222565b60405180910390fd5b8060040160009054906101000a900460ff1615611001576040517f08c379a0000000000000000000000000000000000000000000000000000000008152600401610ff89061228e565b60405180910390fd5b60003411611044576040517f08c379a000000000000000000000000000000000000000000000000000000000815260040161103b906122fa565b60405180910390fd5b81156110c2573481600201600082825461105e9190611a8d565b92505081905550348160050160003373ffffffffffffffffffffffffffffffffffffffff1673ffffffffffffffffffffffffffffffffffffffff16815260200190815260200160002060008282546110b69190611a8d565b92505081905550611136565b348160030160008282546110d69190611a8d565b92505081905550348160060160003373ffffffffffffffffffffffffffffffffffffffff1673ffffffffffffffffffffffffffffffffffffffff168152602001908152602001600020600082825461112e9190611a8d565b925050819055505b3373ffffffffffffffffffffffffffffffffffffffff16837f4af71b021e799c62c158bd54636ca8da2fa26115a21a2dc6efe486ec104fd15f843460405161117f92919061231a565b60405180910390a3505050565b60026020528060005260406000206000915090508060000180546111af90611ef7565b80601f01602080910402602001604051908101604052809291908181526020018280546111db90611ef7565b80156112285780601f106111fd57610100808354040283529160200191611228565b820191906000526020600020905b81548152906001019060200180831161120b57829003601f168201915b5050505050908060010154908060020154908060030154908060040160009054906101000a900460ff16908060040160019054906101000a900460ff16905086565b6000806000806002600087815260200190815260200160002090508060050160008673ffffffffffffffffffffffffffffffffffffffff1673ffffffffffffffffffffffffffffffffffffffff168152602001908152602001600020548160060160008773ffffffffffffffffffffffffffffffffffffffff1673ffffffffffffffffffffffffffffffffffffffff168152602001908152602001600020548260070160008873ffffffffffffffffffffffffffffffffffffffff1673ffffffffffffffffffffffffffffffffffffffff16815260200190815260200160002060009054906101000a900460ff16935093509350509250925092565b60005481565b600360009054906101000a900473ffffffffffffffffffffffffffffffffffffffff1681565b6000819050919050565b6113a581611392565b82525050565b60006020820190506113c0600083018461139c565b92915050565b6000604051905090565b600080fd5b600080fd5b6113e381611392565b81146113ee57600080fd5b50565b600081359050611400816113da565b92915050565b60006020828403121561141c5761141b6113d0565b5b600061142a848285016113f1565b91505092915050565b60008115159050919050565b61144881611433565b811461145357600080fd5b50565b6000813590506114658161143f565b92915050565b60008060408385031215611482576114816113d0565b5b6000611490858286016113f1565b92505060206114a185828601611456565b9150509250929050565b600080fd5b600080fd5b6000601f19601f8301169050919050565b7f4e487b7100000000000000000000000000000000000000000000000000000000600052604160045260246000fd5b6114fe826114b5565b810181811067ffffffffffffffff8211171561151d5761151c6114c6565b5b80604052505050565b60006115306113c6565b905061153c82826114f5565b919050565b600067ffffffffffffffff82111561155c5761155b6114c6565b5b611565826114b5565b9050602081019050919050565b82818337600083830152505050565b600061159461158f84611541565b611526565b9050828152602081018484840111156115b0576115af6114b0565b5b6115bb848285611572565b509392505050565b600082601f8301126115d8576115d76114ab565b5b81356115e8848260208601611581565b91505092915050565b60008060408385031215611608576116076113d0565b5b600083013567ffffffffffffffff811115611626576116256113d5565b5b611632858286016115c3565b9250506020611643858286016113f1565b9150509250929050565b600081519050919050565b600082825260208201905092915050565b60005b8381101561168757808201518184015260208101905061166c565b60008484015250505050565b600061169e8261164d565b6116a88185611658565b93506116b8818560208601611669565b6116c1816114b5565b840191505092915050565b6116d581611433565b82525050565b600060c08201905081810360008301526116f58189611693565b9050611704602083018861139c565b611711604083018761139c565b61171e606083018661139c565b61172b60808301856116cc565b61173860a08301846116cc565b979650505050505050565b600073ffffffffffffffffffffffffffffffffffffffff82169050919050565b600061176e82611743565b9050919050565b61177e81611763565b811461178957600080fd5b50565b60008135905061179b81611775565b92915050565b600080604083850312156117b8576117b76113d0565b5b60006117c6858286016113f1565b92505060206117d78582860161178c565b9150509250929050565b60006060820190506117f6600083018661139c565b611803602083018561139c565b61181060408301846116cc565b949350505050565b61182181611763565b82525050565b600060208201905061183c6000830184611818565b92915050565b7f4f6e6c792061646d696e00000000000000000000000000000000000000000000600082015250565b6000611878600a83611658565b915061188382611842565b602082019050919050565b600060208201905081810360008301526118a78161186b565b9050919050565b7f4d61726b65742072657365740000000000000000000000000000000000000000600082015250565b60006118e4600c83611658565b91506118ef826118ae565b602082019050919050565b60006020820190508181036000830152611913816118d7565b9050919050565b7f4e6f74207265736f6c7665640000000000000000000000000000000000000000600082015250565b6000611950600c83611658565b915061195b8261191a565b602082019050919050565b6000602082019050818103600083015261197f81611943565b9050919050565b7f416c726561647920636c61696d65640000000000000000000000000000000000600082015250565b60006119bc600f83611658565b91506119c782611986565b602082019050919050565b600060208201905081810360008301526119eb816119af565b9050919050565b7f4e6f2077696e6e696e6773000000000000000000000000000000000000000000600082015250565b6000611a28600b83611658565b9150611a33826119f2565b602082019050919050565b60006020820190508181036000830152611a5781611a1b565b9050919050565b7f4e487b7100000000000000000000000000000000000000000000000000000000600052601160045260246000fd5b6000611a9882611392565b9150611aa383611392565b9250828201905080821115611abb57611aba611a5e565b5b92915050565b6000611acc82611392565b9150611ad783611392565b9250828202611ae581611392565b91508282048414831517611afc57611afb611a5e565b5b5092915050565b7f4e487b7100000000000000000000000000000000000000000000000000000000600052601260045260246000fd5b6000611b3d82611392565b9150611b4883611392565b925082611b5857611b57611b03565b5b828204905092915050565b6000611b6e82611392565b9150611b7983611392565b9250828203905081811115611b9157611b90611a5e565b5b92915050565b600081905092915050565b50565b6000611bb2600083611b97565b9150611bbd82611ba2565b600082019050919050565b6000611bd382611ba5565b9150819050919050565b7f466565207472616e73666572206661696c656400000000000000000000000000600082015250565b6000611c13601383611658565b9150611c1e82611bdd565b602082019050919050565b60006020820190508181036000830152611c4281611c06565b9050919050565b7f424e42207472616e73666572206661696c656400000000000000000000000000600082015250565b6000611c7f601383611658565b9150611c8a82611c49565b602082019050919050565b60006020820190508181036000830152611cae81611c72565b9050919050565b7f4d61726b6574206e6f742063616e63656c6c6564000000000000000000000000600082015250565b6000611ceb601483611658565b9150611cf682611cb5565b602082019050919050565b60006020820190508181036000830152611d1a81611cde565b9050919050565b7f4e6f7468696e6720746f20776974686472617700000000000000000000000000600082015250565b6000611d57601383611658565b9150611d6282611d21565b602082019050919050565b60006020820190508181036000830152611d8681611d4a565b9050919050565b7f416c7265616479207265736f6c76656400000000000000000000000000000000600082015250565b6000611dc3601083611658565b9150611dce82611d8d565b602082019050919050565b60006020820190508181036000830152611df281611db6565b9050919050565b7f4d61726b6574206e6f7420656e64656400000000000000000000000000000000600082015250565b6000611e2f601083611658565b9150611e3a82611df9565b602082019050919050565b60006020820190508181036000830152611e5e81611e22565b9050919050565b6000602082019050611e7a60008301846116cc565b92915050565b6000611e8b82611392565b91507fffffffffffffffffffffffffffffffffffffffffffffffffffffffffffffffff8203611ebd57611ebc611a5e565b5b600182019050919050565b7f4e487b7100000000000000000000000000000000000000000000000000000000600052602260045260246000fd5b60006002820490506001821680611f0f57607f821691505b602082108103611f2257611f21611ec8565b5b50919050565b60008190508160005260206000209050919050565b60006020601f8301049050919050565b600082821b905092915050565b600060088302611f8a7fffffffffffffffffffffffffffffffffffffffffffffffffffffffffffffffff82611f4d565b611f948683611f4d565b95508019841693508086168417925050509392505050565b6000819050919050565b6000611fd1611fcc611fc784611392565b611fac565b611392565b9050919050565b6000819050919050565b611feb83611fb6565b611fff611ff782611fd8565b848454611f5a565b825550505050565b600090565b612014612007565b61201f818484611fe2565b505050565b5b818110156120435761203860008261200c565b600181019050612025565b5050565b601f8211156120885761205981611f28565b61206284611f3d565b81016020851015612071578190505b61208561207d85611f3d565b830182612024565b50505b505050565b600082821c905092915050565b60006120ab6000198460080261208d565b1980831691505092915050565b60006120c4838361209a565b9150826002028217905092915050565b6120dd8261164d565b67ffffffffffffffff8111156120f6576120f56114c6565b5b6121008254611ef7565b61210b828285612047565b600060209050601f83116001811461213e576000841561212c578287015190505b61213685826120b8565b86555061219e565b601f19841661214c86611f28565b60005b828110156121745784890151825560018201915060208501945060208101905061214f565b86831015612191578489015161218d601f89168261209a565b8355505b6001600288020188555050505b505050505050565b600060408201905081810360008301526121c08185611693565b90506121cf602083018461139c565b9392505050565b7f4d61726b657420636c6f73656400000000000000000000000000000000000000600082015250565b600061220c600d83611658565b9150612217826121d6565b602082019050919050565b6000602082019050818103600083015261223b816121ff565b9050919050565b7f4d61726b6574207265736f6c7665640000000000000000000000000000000000600082015250565b6000612278600f83611658565b915061228382612242565b602082019050919050565b600060208201905081810360008301526122a78161226b565b9050919050565b7f42657420616d6f756e74206d757374206265203e203000000000000000000000600082015250565b60006122e4601683611658565b91506122ef826122ae565b602082019050919050565b60006020820190508181036000830152612313816122d7565b9050919050565b600060408201905061232f60008301856116cc565b61233c602083018461139c565b939250505056fea2646970667358221220c79d74d386ca51b433da70b2cc157019c8404c08214f34f461f2327438219f5b64736f6c63430008140033","opcodes":"PUSH1 0x80 PUSH1 0x40 MSTORE CALLVALUE DUP1 ISZERO PUSH2 0x10 JUMPI PUSH1 0x0 DUP1 REVERT JUMPDEST POP CALLER PUSH1 0x3 PUSH1 0x0 PUSH2 0x100 EXP DUP2 SLOAD DUP2 PUSH20 0xFFFFFFFFFFFFFFFFFFFFFFFFFFFFFFFFFFFFFFFF MUL NOT AND SWAP1 DUP4 PUSH20 0xFFFFFFFFFFFFFFFFFFFFFFFFFFFFFFFFFFFFFFFF AND MUL OR SWAP1 SSTORE POP PUSH2 0x2379 DUP1 PUSH2 0x61 PUSH1 0x0 CODECOPY PUSH1 0x0 RETURN INVALID PUSH1 0x80 PUSH1 0x40 MSTORE PUSH1 0x4 CALLDATASIZE LT PUSH2 0x9C JUMPI PUSH1 0x0 CALLDATALOAD PUSH1 0xE0 SHR DUP1 PUSH4 0x883C84C1 GT PUSH2 0x64 JUMPI DUP1 PUSH4 0x883C84C1 EQ PUSH2 0x15E JUMPI DUP1 PUSH4 0x9A6D3AAA EQ PUSH2 0x187 JUMPI DUP1 PUSH4 0xB1283E77 EQ PUSH2 0x1A3 JUMPI DUP1 PUSH4 0xC03FB87C EQ PUSH2 0x1E5 JUMPI DUP1 PUSH4 0xEC979082 EQ PUSH2 0x224 JUMPI DUP1 PUSH4 0xF851A440 EQ PUSH2 0x24F JUMPI PUSH2 0x9C JUMP JUMPDEST DUP1 PUSH4 0xF09749A EQ PUSH2 0xA1 JUMPI DUP1 PUSH4 0x16388836 EQ PUSH2 0xCC JUMPI DUP1 PUSH4 0x379607F5 EQ PUSH2 0xE3 JUMPI DUP1 PUSH4 0x5312EA8E EQ PUSH2 0x10C JUMPI DUP1 PUSH4 0x57BDE446 EQ PUSH2 0x135 JUMPI JUMPDEST PUSH1 0x0 DUP1 REVERT JUMPDEST CALLVALUE DUP1 ISZERO PUSH2 0xAD JUMPI PUSH1 0x0 DUP1 REVERT JUMPDEST POP PUSH2 0xB6 PUSH2 0x27A JUMP JUMPDEST PUSH1 0x40 MLOAD PUSH2 0xC3 SWAP2 SWAP1 PUSH2 0x13AB JUMP JUMPDEST PUSH1 0x40 MLOAD DUP1 SWAP2 SUB SWAP1 RETURN JUMPDEST CALLVALUE DUP1 ISZERO PUSH2 0xD8 JUMPI PUSH1 0x0 DUP1 REVERT JUMPDEST POP PUSH2 0xE1 PUSH2 0x280 JUMP JUMPDEST STOP JUMPDEST CALLVALUE DUP1 ISZERO PUSH2 0xEF JUMPI PUSH1 0x0 DUP1 REVERT JUMPDEST POP PUSH2 0x10A PUSH1 0x4 DUP1 CALLDATASIZE SUB DUP2 ADD SWAP1 PUSH2 0x105 SWAP2 SWAP1 PUSH2 0x1406 JUMP JUMPDEST PUSH2 0x31B JUMP JUMPDEST STOP JUMPDEST CALLVALUE DUP1 ISZERO PUSH2 0x118 JUMPI PUSH1 0x0 DUP1 REVERT JUMPDEST POP PUSH2 0x133 PUSH1 0x4 DUP1 CALLDATASIZE SUB DUP2 ADD SWAP1 PUSH2 0x12E SWAP2 SWAP1 PUSH2 0x1406 JUMP JUMPDEST PUSH2 0x7E7 JUMP JUMPDEST STOP JUMPDEST CALLVALUE DUP1 ISZERO PUSH2 0x141 JUMPI PUSH1 0x0 DUP1 REVERT JUMPDEST POP PUSH2 0x15C PUSH1 0x4 DUP1 CALLDATASIZE SUB DUP2 ADD SWAP1 PUSH2 0x157 SWAP2 SWAP1 PUSH2 0x146B JUMP JUMPDEST PUSH2 0xB9C JUMP JUMPDEST STOP JUMPDEST CALLVALUE DUP1 ISZERO PUSH2 0x16A JUMPI PUSH1 0x0 DUP1 REVERT JUMPDEST POP PUSH2 0x185 PUSH1 0x4 DUP1 CALLDATASIZE SUB DUP2 ADD SWAP1 PUSH2 0x180 SWAP2 SWAP1 PUSH2 0x15F1 JUMP JUMPDEST PUSH2 0xD96 JUMP JUMPDEST STOP JUMPDEST PUSH2 0x1A1 PUSH1 0x4 DUP1 CALLDATASIZE SUB DUP2 ADD SWAP1 PUSH2 0x19C SWAP2 SWAP1 PUSH2 0x146B JUMP JUMPDEST PUSH2 0xF0E JUMP JUMPDEST STOP JUMPDEST CALLVALUE DUP1 ISZERO PUSH2 0x1AF JUMPI PUSH1 0x0 DUP1 REVERT JUMPDEST POP PUSH2 0x1CA PUSH1 0x4 DUP1 CALLDATASIZE SUB DUP2 ADD SWAP1 PUSH2 0x1C5 SWAP2 SWAP1 PUSH2 0x1406 JUMP JUMPDEST PUSH2 0x118C JUMP JUMPDEST PUSH1 0x40 MLOAD PUSH2 0x1DC SWAP7 SWAP6 SWAP5 SWAP4 SWAP3 SWAP2 SWAP1 PUSH2 0x16DB JUMP JUMPDEST PUSH1 0x40 MLOAD DUP1 SWAP2 SUB SWAP1 RETURN JUMPDEST CALLVALUE DUP1 ISZERO PUSH2 0x1F1 JUMPI PUSH1 0x0 DUP1 REVERT JUMPDEST POP PUSH2 0x20C PUSH1 0x4 DUP1 CALLDATASIZE SUB DUP2 ADD SWAP1 PUSH2 0x207 SWAP2 SWAP1 PUSH2 0x17A1 JUMP JUMPDEST PUSH2 0x126A JUMP JUMPDEST PUSH1 0x40 MLOAD PUSH2 0x21B SWAP4 SWAP3 SWAP2 SWAP1 PUSH2 0x17E1 JUMP JUMPDEST PUSH1 0x40 MLOAD DUP1 SWAP2 SUB SWAP1 RETURN JUMPDEST CALLVALUE DUP1 ISZERO PUSH2 0x230 JUMPI PUSH1 0x0 DUP1 REVERT JUMPDEST POP PUSH2 0x239 PUSH2 0x1366 JUMP JUMPDEST PUSH1 0x40 MLOAD PUSH2 0x246 SWAP2 SWAP1 PUSH2 0x13AB JUMP JUMPDEST PUSH1 0x40 MLOAD DUP1 SWAP2 SUB SWAP1 RETURN JUMPDEST CALLVALUE DUP1 ISZERO PUSH2 0x25B JUMPI PUSH1 0x0 DUP1 REVERT JUMPDEST POP PUSH2 0x264 PUSH2 0x136C JUMP JUMPDEST PUSH1 0x40 MLOAD PUSH2 0x271 SWAP2 SWAP1 PUSH2 0x1827 JUMP JUMPDEST PUSH1 0x40 MLOAD DUP1 SWAP2 SUB SWAP1 RETURN JUMPDEST PUSH1 0x1 SLOAD DUP2 JUMP JUMPDEST PUSH1 0x3 PUSH1 0x0 SWAP1 SLOAD SWAP1 PUSH2 0x100 EXP SWAP1 DIV PUSH20 0xFFFFFFFFFFFFFFFFFFFFFFFFFFFFFFFFFFFFFFFF AND PUSH20 0xFFFFFFFFFFFFFFFFFFFFFFFFFFFFFFFFFFFFFFFF AND CALLER PUSH20 0xFFFFFFFFFFFFFFFFFFFFFFFFFFFFFFFFFFFFFFFF AND EQ PUSH2 0x310 JUMPI PUSH1 0x40 MLOAD PUSH32 0x8C379A000000000000000000000000000000000000000000000000000000000 DUP2 MSTORE PUSH1 0x4 ADD PUSH2 0x307 SWAP1 PUSH2 0x188E JUMP JUMPDEST PUSH1 0x40 MLOAD DUP1 SWAP2 SUB SWAP1 REVERT JUMPDEST PUSH1 0x0 SLOAD PUSH1 0x1 DUP2 SWAP1 SSTORE POP JUMP JUMPDEST PUSH1 0x1 SLOAD DUP2 GT PUSH2 0x35F JUMPI PUSH1 0x40 MLOAD PUSH32 0x8C379A000000000000000000000000000000000000000000000000000000000 DUP2 MSTORE PUSH1 0x4 ADD PUSH2 0x356 SWAP1 PUSH2 0x18FA JUMP JUMPDEST PUSH1 0x40 MLOAD DUP1 SWAP2 SUB SWAP1 REVERT JUMPDEST PUSH1 0x0 PUSH1 0x2 PUSH1 0x0 DUP4 DUP2 MSTORE PUSH1 0x20 ADD SWAP1 DUP2 MSTORE PUSH1 0x20 ADD PUSH1 0x0 KECCAK256 SWAP1 POP DUP1 PUSH1 0x4 ADD PUSH1 0x0 SWAP1 SLOAD SWAP1 PUSH2 0x100 EXP SWAP1 DIV PUSH1 0xFF AND PUSH2 0x3C7 JUMPI PUSH1 0x40 MLOAD PUSH32 0x8C379A000000000000000000000000000000000000000000000000000000000 DUP2 MSTORE PUSH1 0x4 ADD PUSH2 0x3BE SWAP1 PUSH2 0x1966 JUMP JUMPDEST PUSH1 0x40 MLOAD DUP1 SWAP2 SUB SWAP1 REVERT JUMPDEST DUP1 PUSH1 0x7 ADD PUSH1 0x0 CALLER PUSH20 0xFFFFFFFFFFFFFFFFFFFFFFFFFFFFFFFFFFFFFFFF AND PUSH20 0xFFFFFFFFFFFFFFFFFFFFFFFFFFFFFFFFFFFFFFFF AND DUP2 MSTORE PUSH1 0x20 ADD SWAP1 DUP2 MSTORE PUSH1 0x20 ADD PUSH1 0x0 KECCAK256 PUSH1 0x0 SWAP1 SLOAD SWAP1 PUSH2 0x100 EXP SWAP1 DIV PUSH1 0xFF AND ISZERO PUSH2 0x456 JUMPI PUSH1 0x40 MLOAD PUSH32 0x8C379A000000000000000000000000000000000000000000000000000000000 DUP2 MSTORE PUSH1 0x4 ADD PUSH2 0x44D SWAP1 PUSH2 0x19D2 JUMP JUMPDEST PUSH1 0x40 MLOAD DUP1 SWAP2 SUB SWAP1 REVERT JUMPDEST PUSH1 0x0 DUP1 PUSH1 0x0 DUP4 PUSH1 0x4 ADD PUSH1 0x1 SWAP1 SLOAD SWAP1 PUSH2 0x100 EXP SWAP1 DIV PUSH1 0xFF AND ISZERO PUSH2 0x4C9 JUMPI DUP4 PUSH1 0x5 ADD PUSH1 0x0 CALLER PUSH20 0xFFFFFFFFFFFFFFFFFFFFFFFFFFFFFFFFFFFFFFFF AND PUSH20 0xFFFFFFFFFFFFFFFFFFFFFFFFFFFFFFFFFFFFFFFF AND DUP2 MSTORE PUSH1 0x20 ADD SWAP1 DUP2 MSTORE PUSH1 0x20 ADD PUSH1 0x0 KECCAK256 SLOAD SWAP3 POP DUP4 PUSH1 0x2 ADD SLOAD SWAP2 POP DUP4 PUSH1 0x3 ADD SLOAD SWAP1 POP PUSH2 0x51C JUMP JUMPDEST DUP4 PUSH1 0x6 ADD PUSH1 0x0 CALLER PUSH20 0xFFFFFFFFFFFFFFFFFFFFFFFFFFFFFFFFFFFFFFFF AND PUSH20 0xFFFFFFFFFFFFFFFFFFFFFFFFFFFFFFFFFFFFFFFF AND DUP2 MSTORE PUSH1 0x20 ADD SWAP1 DUP2 MSTORE PUSH1 0x20 ADD PUSH1 0x0 KECCAK256 SLOAD SWAP3 POP DUP4 PUSH1 0x3 ADD SLOAD SWAP2 POP DUP4 PUSH1 0x2 ADD SLOAD SWAP1 POP JUMPDEST PUSH1 0x0 DUP4 GT PUSH2 0x55F JUMPI PUSH1 0x40 MLOAD PUSH32 0x8C379A000000000000000000000000000000000000000000000000000000000 DUP2 MSTORE PUSH1 0x4 ADD PUSH2 0x556 SWAP1 PUSH2 0x1A3E JUMP JUMPDEST PUSH1 0x40 MLOAD DUP1 SWAP2 SUB SWAP1 REVERT JUMPDEST PUSH1 0x1 DUP5 PUSH1 0x7 ADD PUSH1 0x0 CALLER PUSH20 0xFFFFFFFFFFFFFFFFFFFFFFFFFFFFFFFFFFFFFFFF AND PUSH20 0xFFFFFFFFFFFFFFFFFFFFFFFFFFFFFFFFFFFFFFFF AND DUP2 MSTORE PUSH1 0x20 ADD SWAP1 DUP2 MSTORE PUSH1 0x20 ADD PUSH1 0x0 KECCAK256 PUSH1 0x0 PUSH2 0x100 EXP DUP2 SLOAD DUP2 PUSH1 0xFF MUL NOT AND SWAP1 DUP4 ISZERO ISZERO MUL OR SWAP1 SSTORE POP PUSH1 0x0 DUP2 DUP4 PUSH2 0x5C7 SWAP2 SWAP1 PUSH2 0x1A8D JUMP JUMPDEST SWAP1 POP PUSH1 0x0 DUP4 DUP3 DUP7 PUSH2 0x5D8 SWAP2 SWAP1 PUSH2 0x1AC1 JUMP JUMPDEST PUSH2 0x5E2 SWAP2 SWAP1 PUSH2 0x1B32 JUMP JUMPDEST SWAP1 POP PUSH1 0x0 PUSH1 0x64 PUSH1 0x5 DUP4 PUSH2 0x5F5 SWAP2 SWAP1 PUSH2 0x1AC1 JUMP JUMPDEST PUSH2 0x5FF SWAP2 SWAP1 PUSH2 0x1B32 JUMP JUMPDEST SWAP1 POP PUSH1 0x0 DUP2 DUP4 PUSH2 0x60F SWAP2 SWAP1 PUSH2 0x1B63 JUMP JUMPDEST SWAP1 POP PUSH1 0x0 PUSH1 0x3 PUSH1 0x0 SWAP1 SLOAD SWAP1 PUSH2 0x100 EXP SWAP1 DIV PUSH20 0xFFFFFFFFFFFFFFFFFFFFFFFFFFFFFFFFFFFFFFFF AND PUSH20 0xFFFFFFFFFFFFFFFFFFFFFFFFFFFFFFFFFFFFFFFF AND DUP4 PUSH1 0x40 MLOAD PUSH2 0x659 SWAP1 PUSH2 0x1BC8 JUMP JUMPDEST PUSH1 0x0 PUSH1 0x40 MLOAD DUP1 DUP4 SUB DUP2 DUP6 DUP8 GAS CALL SWAP3 POP POP POP RETURNDATASIZE DUP1 PUSH1 0x0 DUP2 EQ PUSH2 0x696 JUMPI PUSH1 0x40 MLOAD SWAP2 POP PUSH1 0x1F NOT PUSH1 0x3F RETURNDATASIZE ADD AND DUP3 ADD PUSH1 0x40 MSTORE RETURNDATASIZE DUP3 MSTORE RETURNDATASIZE PUSH1 0x0 PUSH1 0x20 DUP5 ADD RETURNDATACOPY PUSH2 0x69B JUMP JUMPDEST PUSH1 0x60 SWAP2 POP JUMPDEST POP POP SWAP1 POP DUP1 PUSH2 0x6DF JUMPI PUSH1 0x40 MLOAD PUSH32 0x8C379A000000000000000000000000000000000000000000000000000000000 DUP2 MSTORE PUSH1 0x4 ADD PUSH2 0x6D6 SWAP1 PUSH2 0x1C29 JUMP JUMPDEST PUSH1 0x40 MLOAD DUP1 SWAP2 SUB SWAP1 REVERT JUMPDEST PUSH1 0x0 CALLER PUSH20 0xFFFFFFFFFFFFFFFFFFFFFFFFFFFFFFFFFFFFFFFF AND DUP4 PUSH1 0x40 MLOAD PUSH2 0x705 SWAP1 PUSH2 0x1BC8 JUMP JUMPDEST PUSH1 0x0 PUSH1 0x40 MLOAD DUP1 DUP4 SUB DUP2 DUP6 DUP8 GAS CALL SWAP3 POP POP POP RETURNDATASIZE DUP1 PUSH1 0x0 DUP2 EQ PUSH2 0x742 JUMPI PUSH1 0x40 MLOAD SWAP2 POP PUSH1 0x1F NOT PUSH1 0x3F RETURNDATASIZE ADD AND DUP3 ADD PUSH1 0x40 MSTORE RETURNDATASIZE DUP3 MSTORE RETURNDATASIZE PUSH1 0x0 PUSH1 0x20 DUP5 ADD RETURNDATACOPY PUSH2 0x747 JUMP JUMPDEST PUSH1 0x60 SWAP2 POP JUMPDEST POP POP SWAP1 POP DUP1 PUSH2 0x78B JUMPI PUSH1 0x40 MLOAD PUSH32 0x8C379A000000000000000000000000000000000000000000000000000000000 DUP2 MSTORE PUSH1 0x4 ADD PUSH2 0x782 SWAP1 PUSH2 0x1C95 JUMP JUMPDEST PUSH1 0x40 MLOAD DUP1 SWAP2 SUB SWAP1 REVERT JUMPDEST CALLER PUSH20 0xFFFFFFFFFFFFFFFFFFFFFFFFFFFFFFFFFFFFFFFF AND DUP12 PUSH32 0x5380CF6FE903B40C6D5A9E0DFBCA2F3A423F0A21520B4D5947ED5169BDBA946D DUP6 PUSH1 0x40 MLOAD PUSH2 0x7D2 SWAP2 SWAP1 PUSH2 0x13AB JUMP JUMPDEST PUSH1 0x40 MLOAD DUP1 SWAP2 SUB SWAP1 LOG3 POP POP POP POP POP POP POP POP POP POP POP JUMP JUMPDEST PUSH1 0x1 SLOAD DUP2 GT ISZERO PUSH2 0x82C JUMPI PUSH1 0x40 MLOAD PUSH32 0x8C379A000000000000000000000000000000000000000000000000000000000 DUP2 MSTORE PUSH1 0x4 ADD PUSH2 0x823 SWAP1 PUSH2 0x1D01 JUMP JUMPDEST PUSH1 0x40 MLOAD DUP1 SWAP2 SUB SWAP1 REVERT JUMPDEST PUSH1 0x0 PUSH1 0x2 PUSH1 0x0 DUP4 DUP2 MSTORE PUSH1 0x20 ADD SWAP1 DUP2 MSTORE PUSH1 0x20 ADD PUSH1 0x0 KECCAK256 SWAP1 POP DUP1 PUSH1 0x7 ADD PUSH1 0x0 CALLER PUSH20 0xFFFFFFFFFFFFFFFFFFFFFFFFFFFFFFFFFFFFFFFF AND PUSH20 0xFFFFFFFFFFFFFFFFFFFFFFFFFFFFFFFFFFFFFFFF AND DUP2 MSTORE PUSH1 0x20 ADD SWAP1 DUP2 MSTORE PUSH1 0x20 ADD PUSH1 0x0 KECCAK256 PUSH1 0x0 SWAP1 SLOAD SWAP1 PUSH2 0x100 EXP SWAP1 DIV PUSH1 0xFF AND ISZERO PUSH2 0x8D2 JUMPI PUSH1 0x40 MLOAD PUSH32 0x8C379A000000000000000000000000000000000000000000000000000000000 DUP2 MSTORE PUSH1 0x4 ADD PUSH2 0x8C9 SWAP1 PUSH2 0x19D2 JUMP JUMPDEST PUSH1 0x40 MLOAD DUP1 SWAP2 SUB SWAP1 REVERT JUMPDEST PUSH1 0x0 DUP2 PUSH1 0x5 ADD PUSH1 0x0 CALLER PUSH20 0xFFFFFFFFFFFFFFFFFFFFFFFFFFFFFFFFFFFFFFFF AND PUSH20 0xFFFFFFFFFFFFFFFFFFFFFFFFFFFFFFFFFFFFFFFF AND DUP2 MSTORE PUSH1 0x20 ADD SWAP1 DUP2 MSTORE PUSH1 0x20 ADD PUSH1 0x0 KECCAK256 SLOAD SWAP1 POP PUSH1 0x0 DUP3 PUSH1 0x6 ADD PUSH1 0x0 CALLER PUSH20 0xFFFFFFFFFFFFFFFFFFFFFFFFFFFFFFFFFFFFFFFF AND PUSH20 0xFFFFFFFFFFFFFFFFFFFFFFFFFFFFFFFFFFFFFFFF AND DUP2 MSTORE PUSH1 0x20 ADD SWAP1 DUP2 MSTORE PUSH1 0x20 ADD PUSH1 0x0 KECCAK256 SLOAD SWAP1 POP PUSH1 0x0 DUP2 DUP4 PUSH2 0x96C SWAP2 SWAP1 PUSH2 0x1A8D JUMP JUMPDEST SWAP1 POP PUSH1 0x0 DUP2 GT PUSH2 0x9B1 JUMPI PUSH1 0x40 MLOAD PUSH32 0x8C379A000000000000000000000000000000000000000000000000000000000 DUP2 MSTORE PUSH1 0x4 ADD PUSH2 0x9A8 SWAP1 PUSH2 0x1D6D JUMP JUMPDEST PUSH1 0x40 MLOAD DUP1 SWAP2 SUB SWAP1 REVERT JUMPDEST PUSH1 0x0 DUP5 PUSH1 0x5 ADD PUSH1 0x0 CALLER PUSH20 0xFFFFFFFFFFFFFFFFFFFFFFFFFFFFFFFFFFFFFFFF AND PUSH20 0xFFFFFFFFFFFFFFFFFFFFFFFFFFFFFFFFFFFFFFFF AND DUP2 MSTORE PUSH1 0x20 ADD SWAP1 DUP2 MSTORE PUSH1 0x20 ADD PUSH1 0x0 KECCAK256 DUP2 SWAP1 SSTORE POP PUSH1 0x0 DUP5 PUSH1 0x6 ADD PUSH1 0x0 CALLER PUSH20 0xFFFFFFFFFFFFFFFFFFFFFFFFFFFFFFFFFFFFFFFF AND PUSH20 0xFFFFFFFFFFFFFFFFFFFFFFFFFFFFFFFFFFFFFFFF AND DUP2 MSTORE PUSH1 0x20 ADD SWAP1 DUP2 MSTORE PUSH1 0x20 ADD PUSH1 0x0 KECCAK256 DUP2 SWAP1 SSTORE POP PUSH1 0x1 DUP5 PUSH1 0x7 ADD PUSH1 0x0 CALLER PUSH20 0xFFFFFFFFFFFFFFFFFFFFFFFFFFFFFFFFFFFFFFFF AND PUSH20 0xFFFFFFFFFFFFFFFFFFFFFFFFFFFFFFFFFFFFFFFF AND DUP2 MSTORE PUSH1 0x20 ADD SWAP1 DUP2 MSTORE PUSH1 0x20 ADD PUSH1 0x0 KECCAK256 PUSH1 0x0 PUSH2 0x100 EXP DUP2 SLOAD DUP2 PUSH1 0xFF MUL NOT AND SWAP1 DUP4 ISZERO ISZERO MUL OR SWAP1 SSTORE POP PUSH1 0x0 CALLER PUSH20 0xFFFFFFFFFFFFFFFFFFFFFFFFFFFFFFFFFFFFFFFF AND DUP3 PUSH1 0x40 MLOAD PUSH2 0xABF SWAP1 PUSH2 0x1BC8 JUMP JUMPDEST PUSH1 0x0 PUSH1 0x40 MLOAD DUP1 DUP4 SUB DUP2 DUP6 DUP8 GAS CALL SWAP3 POP POP POP RETURNDATASIZE DUP1 PUSH1 0x0 DUP2 EQ PUSH2 0xAFC JUMPI PUSH1 0x40 MLOAD SWAP2 POP PUSH1 0x1F NOT PUSH1 0x3F RETURNDATASIZE ADD AND DUP3 ADD PUSH1 0x40 MSTORE RETURNDATASIZE DUP3 MSTORE RETURNDATASIZE PUSH1 0x0 PUSH1 0x20 DUP5 ADD RETURNDATACOPY PUSH2 0xB01 JUMP JUMPDEST PUSH1 0x60 SWAP2 POP JUMPDEST POP POP SWAP1 POP DUP1 PUSH2 0xB45 JUMPI PUSH1 0x40 MLOAD PUSH32 0x8C379A000000000000000000000000000000000000000000000000000000000 DUP2 MSTORE PUSH1 0x4 ADD PUSH2 0xB3C SWAP1 PUSH2 0x1C95 JUMP JUMPDEST PUSH1 0x40 MLOAD DUP1 SWAP2 SUB SWAP1 REVERT JUMPDEST CALLER PUSH20 0xFFFFFFFFFFFFFFFFFFFFFFFFFFFFFFFFFFFFFFFF AND DUP7 PUSH32 0xAFE87099D21CD68765CCB431A535CA7A632AC9F66E04E99C9574FB5DDFDEFCA7 DUP5 PUSH1 0x40 MLOAD PUSH2 0xB8C SWAP2 SWAP1 PUSH2 0x13AB JUMP JUMPDEST PUSH1 0x40 MLOAD DUP1 SWAP2 SUB SWAP1 LOG3 POP POP POP POP POP POP JUMP JUMPDEST PUSH1 0x3 PUSH1 0x0 SWAP1 SLOAD SWAP1 PUSH2 0x100 EXP SWAP1 DIV PUSH20 0xFFFFFFFFFFFFFFFFFFFFFFFFFFFFFFFFFFFFFFFF AND PUSH20 0xFFFFFFFFFFFFFFFFFFFFFFFFFFFFFFFFFFFFFFFF AND CALLER PUSH20 0xFFFFFFFFFFFFFFFFFFFFFFFFFFFFFFFFFFFFFFFF AND EQ PUSH2 0xC2C JUMPI PUSH1 0x40 MLOAD PUSH32 0x8C379A000000000000000000000000000000000000000000000000000000000 DUP2 MSTORE PUSH1 0x4 ADD PUSH2 0xC23 SWAP1 PUSH2 0x188E JUMP JUMPDEST PUSH1 0x40 MLOAD DUP1 SWAP2 SUB SWAP1 REVERT JUMPDEST PUSH1 0x1 SLOAD DUP3 GT PUSH2 0xC70 JUMPI PUSH1 0x40 MLOAD PUSH32 0x8C379A000000000000000000000000000000000000000000000000000000000 DUP2 MSTORE PUSH1 0x4 ADD PUSH2 0xC67 SWAP1 PUSH2 0x18FA JUMP JUMPDEST PUSH1 0x40 MLOAD DUP1 SWAP2 SUB SWAP1 REVERT JUMPDEST PUSH1 0x0 PUSH1 0x2 PUSH1 0x0 DUP5 DUP2 MSTORE PUSH1 0x20 ADD SWAP1 DUP2 MSTORE PUSH1 0x20 ADD PUSH1 0x0 KECCAK256 SWAP1 POP DUP1 PUSH1 0x4 ADD PUSH1 0x0 SWAP1 SLOAD SWAP1 PUSH2 0x100 EXP SWAP1 DIV PUSH1 0xFF AND ISZERO PUSH2 0xCD9 JUMPI PUSH1 0x40 MLOAD PUSH32 0x8C379A000000000000000000000000000000000000000000000000000000000 DUP2 MSTORE PUSH1 0x4 ADD PUSH2 0xCD0 SWAP1 PUSH2 0x1DD9 JUMP JUMPDEST PUSH1 0x40 MLOAD DUP1 SWAP2 SUB SWAP1 REVERT JUMPDEST DUP1 PUSH1 0x1 ADD SLOAD TIMESTAMP LT ISZERO PUSH2 0xD20 JUMPI PUSH1 0x40 MLOAD PUSH32 0x8C379A000000000000000000000000000000000000000000000000000000000 DUP2 MSTORE PUSH1 0x4 ADD PUSH2 0xD17 SWAP1 PUSH2 0x1E45 JUMP JUMPDEST PUSH1 0x40 MLOAD DUP1 SWAP2 SUB SWAP1 REVERT JUMPDEST PUSH1 0x1 DUP2 PUSH1 0x4 ADD PUSH1 0x0 PUSH2 0x100 EXP DUP2 SLOAD DUP2 PUSH1 0xFF MUL NOT AND SWAP1 DUP4 ISZERO ISZERO MUL OR SWAP1 SSTORE POP DUP2 DUP2 PUSH1 0x4 ADD PUSH1 0x1 PUSH2 0x100 EXP DUP2 SLOAD DUP2 PUSH1 0xFF MUL NOT AND SWAP1 DUP4 ISZERO ISZERO MUL OR SWAP1 SSTORE POP DUP3 PUSH32 0x4927FE38919783250023D27E65A3E56B6B5C3E49364E51674A41EF08D62460D9 DUP4 PUSH1 0x40 MLOAD PUSH2 0xD89 SWAP2 SWAP1 PUSH2 0x1E65 JUMP JUMPDEST PUSH1 0x40 MLOAD DUP1 SWAP2 SUB SWAP1 LOG2 POP POP POP JUMP JUMPDEST PUSH1 0x3 PUSH1 0x0 SWAP1 SLOAD SWAP1 PUSH2 0x100 EXP SWAP1 DIV PUSH20 0xFFFFFFFFFFFFFFFFFFFFFFFFFFFFFFFFFFFFFFFF AND PUSH20 0xFFFFFFFFFFFFFFFFFFFFFFFFFFFFFFFFFFFFFFFF AND CALLER PUSH20 0xFFFFFFFFFFFFFFFFFFFFFFFFFFFFFFFFFFFFFFFF AND EQ PUSH2 0xE26 JUMPI PUSH1 0x40 MLOAD PUSH32 0x8C379A000000000000000000000000000000000000000000000000000000000 DUP2 MSTORE PUSH1 0x4 ADD PUSH2 0xE1D SWAP1 PUSH2 0x188E JUMP JUMPDEST PUSH1 0x40 MLOAD DUP1 SWAP2 SUB SWAP1 REVERT JUMPDEST PUSH1 0x0 DUP1 DUP2 SLOAD DUP1 SWAP3 SWAP2 SWAP1 PUSH2 0xE38 SWAP1 PUSH2 0x1E80 JUMP JUMPDEST SWAP2 SWAP1 POP SSTORE POP PUSH1 0x0 PUSH1 0x2 PUSH1 0x0 DUP1 SLOAD DUP2 MSTORE PUSH1 0x20 ADD SWAP1 DUP2 MSTORE PUSH1 0x20 ADD PUSH1 0x0 KECCAK256 SWAP1 POP PUSH1 0x0 DUP2 PUSH1 0x4 ADD PUSH1 0x0 PUSH2 0x100 EXP DUP2 SLOAD DUP2 PUSH1 0xFF MUL NOT AND SWAP1 DUP4 ISZERO ISZERO MUL OR SWAP1 SSTORE POP PUSH1 0x0 DUP2 PUSH1 0x4 ADD PUSH1 0x1 PUSH2 0x100 EXP DUP2 SLOAD DUP2 PUSH1 0xFF MUL NOT AND SWAP1 DUP4 ISZERO ISZERO MUL OR SWAP1 SSTORE POP PUSH1 0x0 DUP2 PUSH1 0x2 ADD DUP2 SWAP1 SSTORE POP PUSH1 0x0 DUP2 PUSH1 0x3 ADD DUP2 SWAP1 SSTORE POP DUP3 DUP2 PUSH1 0x0 ADD SWAP1 DUP2 PUSH2 0xEB4 SWAP2 SWAP1 PUSH2 0x20D4 JUMP JUMPDEST POP DUP2 TIMESTAMP PUSH2 0xEC1 SWAP2 SWAP1 PUSH2 0x1A8D JUMP JUMPDEST DUP2 PUSH1 0x1 ADD DUP2 SWAP1 SSTORE POP PUSH1 0x0 SLOAD PUSH32 0x2D1E9AD45DBE8E898E0374DEEBF2A661B2AE7C1855D2A29507D584C35D287C75 DUP5 DUP4 PUSH1 0x1 ADD SLOAD PUSH1 0x40 MLOAD PUSH2 0xF01 SWAP3 SWAP2 SWAP1 PUSH2 0x21A6 JUMP JUMPDEST PUSH1 0x40 MLOAD DUP1 SWAP2 SUB SWAP1 LOG2 POP POP POP JUMP JUMPDEST PUSH1 0x1 SLOAD DUP3 GT PUSH2 0xF52 JUMPI PUSH1 0x40 MLOAD PUSH32 0x8C379A000000000000000000000000000000000000000000000000000000000 DUP2 MSTORE PUSH1 0x4 ADD PUSH2 0xF49 SWAP1 PUSH2 0x18FA JUMP JUMPDEST PUSH1 0x40 MLOAD DUP1 SWAP2 SUB SWAP1 REVERT JUMPDEST PUSH1 0x0 PUSH1 0x2 PUSH1 0x0 DUP5 DUP2 MSTORE PUSH1 0x20 ADD SWAP1 DUP2 MSTORE PUSH1 0x20 ADD PUSH1 0x0 KECCAK256 SWAP1 POP DUP1 PUSH1 0x1 ADD SLOAD TIMESTAMP LT PUSH2 0xFAF JUMPI PUSH1 0x40 MLOAD PUSH32 0x8C379A000000000000000000000000000000000000000000000000000000000 DUP2 MSTORE PUSH1 0x4 ADD PUSH2 0xFA6 SWAP1 PUSH2 0x2222 JUMP JUMPDEST PUSH1 0x40 MLOAD DUP1 SWAP2 SUB SWAP1 REVERT JUMPDEST DUP1 PUSH1 0x4 ADD PUSH1 0x0 SWAP1 SLOAD SWAP1 PUSH2 0x100 EXP SWAP1 DIV PUSH1 0xFF AND ISZERO PUSH2 0x1001 JUMPI PUSH1 0x40 MLOAD PUSH32 0x8C379A000000000000000000000000000000000000000000000000000000000 DUP2 MSTORE PUSH1 0x4 ADD PUSH2 0xFF8 SWAP1 PUSH2 0x228E JUMP JUMPDEST PUSH1 0x40 MLOAD DUP1 SWAP2 SUB SWAP1 REVERT JUMPDEST PUSH1 0x0 CALLVALUE GT PUSH2 0x1044 JUMPI PUSH1 0x40 MLOAD PUSH32 0x8C379A000000000000000000000000000000000000000000000000000000000 DUP2 MSTORE PUSH1 0x4 ADD PUSH2 0x103B SWAP1 PUSH2 0x22FA JUMP JUMPDEST PUSH1 0x40 MLOAD DUP1 SWAP2 SUB SWAP1 REVERT JUMPDEST DUP2 ISZERO PUSH2 0x10C2 JUMPI CALLVALUE DUP2 PUSH1 0x2 ADD PUSH1 0x0 DUP3 DUP3 SLOAD PUSH2 0x105E SWAP2 SWAP1 PUSH2 0x1A8D JUMP JUMPDEST SWAP3 POP POP DUP2 SWAP1 SSTORE POP CALLVALUE DUP2 PUSH1 0x5 ADD PUSH1 0x0 CALLER PUSH20 0xFFFFFFFFFFFFFFFFFFFFFFFFFFFFFFFFFFFFFFFF AND PUSH20 0xFFFFFFFFFFFFFFFFFFFFFFFFFFFFFFFFFFFFFFFF AND DUP2 MSTORE PUSH1 0x20 ADD SWAP1 DUP2 MSTORE PUSH1 0x20 ADD PUSH1 0x0 KECCAK256 PUSH1 0x0 DUP3 DUP3 SLOAD PUSH2 0x10B6 SWAP2 SWAP1 PUSH2 0x1A8D JUMP JUMPDEST SWAP3 POP POP DUP2 SWAP1 SSTORE POP PUSH2 0x1136 JUMP JUMPDEST CALLVALUE DUP2 PUSH1 0x3 ADD PUSH1 0x0 DUP3 DUP3 SLOAD PUSH2 0x10D6 SWAP2 SWAP1 PUSH2 0x1A8D JUMP JUMPDEST SWAP3 POP POP DUP2 SWAP1 SSTORE POP CALLVALUE DUP2 PUSH1 0x6 ADD PUSH1 0x0 CALLER PUSH20 0xFFFFFFFFFFFFFFFFFFFFFFFFFFFFFFFFFFFFFFFF AND PUSH20 0xFFFFFFFFFFFFFFFFFFFFFFFFFFFFFFFFFFFFFFFF AND DUP2 MSTORE PUSH1 0x20 ADD SWAP1 DUP2 MSTORE PUSH1 0x20 ADD PUSH1 0x0 KECCAK256 PUSH1 0x0 DUP3 DUP3 SLOAD PUSH2 0x112E SWAP2 SWAP1 PUSH2 0x1A8D JUMP JUMPDEST SWAP3 POP POP DUP2 SWAP1 SSTORE POP JUMPDEST CALLER PUSH20 0xFFFFFFFFFFFFFFFFFFFFFFFFFFFFFFFFFFFFFFFF AND DUP4 PUSH32 0x4AF71B021E799C62C158BD54636CA8DA2FA26115A21A2DC6EFE486EC104FD15F DUP5 CALLVALUE PUSH1 0x40 MLOAD PUSH2 0x117F SWAP3 SWAP2 SWAP1 PUSH2 0x231A JUMP JUMPDEST PUSH1 0x40 MLOAD DUP1 SWAP2 SUB SWAP1 LOG3 POP POP POP JUMP JUMPDEST PUSH1 0x2 PUSH1 0x20 MSTORE DUP1 PUSH1 0x0 MSTORE PUSH1 0x40 PUSH1 0x0 KECCAK256 PUSH1 0x0 SWAP2 POP SWAP1 POP DUP1 PUSH1 0x0 ADD DUP1 SLOAD PUSH2 0x11AF SWAP1 PUSH2 0x1EF7 JUMP JUMPDEST DUP1 PUSH1 0x1F ADD PUSH1 0x20 DUP1 SWAP2 DIV MUL PUSH1 0x20 ADD PUSH1 0x40 MLOAD SWAP1 DUP2 ADD PUSH1 0x40 MSTORE DUP1 SWAP3 SWAP2 SWAP1 DUP2 DUP2 MSTORE PUSH1 0x20 ADD DUP3 DUP1 SLOAD PUSH2 0x11DB SWAP1 PUSH2 0x1EF7 JUMP JUMPDEST DUP1 ISZERO PUSH2 0x1228 JUMPI DUP1 PUSH1 0x1F LT PUSH2 0x11FD JUMPI PUSH2 0x100 DUP1 DUP4 SLOAD DIV MUL DUP4 MSTORE SWAP2 PUSH1 0x20 ADD SWAP2 PUSH2 0x1228 JUMP JUMPDEST DUP3 ADD SWAP2 SWAP1 PUSH1 0x0 MSTORE PUSH1 0x20 PUSH1 0x0 KECCAK256 SWAP1 JUMPDEST DUP2 SLOAD DUP2 MSTORE SWAP1 PUSH1 0x1 ADD SWAP1 PUSH1 0x20 ADD DUP1 DUP4 GT PUSH2 0x120B JUMPI DUP3 SWAP1 SUB PUSH1 0x1F AND DUP3 ADD SWAP2 JUMPDEST POP POP POP POP POP SWAP1 DUP1 PUSH1 0x1 ADD SLOAD SWAP1 DUP1 PUSH1 0x2 ADD SLOAD SWAP1 DUP1 PUSH1 0x3 ADD SLOAD SWAP1 DUP1 PUSH1 0x4 ADD PUSH1 0x0 SWAP1 SLOAD SWAP1 PUSH2 0x100 EXP SWAP1 DIV PUSH1 0xFF AND SWAP1 DUP1 PUSH1 0x4 ADD PUSH1 0x1 SWAP1 SLOAD SWAP1 PUSH2 0x100 EXP SWAP1 DIV PUSH1 0xFF AND SWAP1 POP DUP7 JUMP JUMPDEST PUSH1 0x0 DUP1 PUSH1 0x0 DUP1 PUSH1 0x2 PUSH1 0x0 DUP8 DUP2 MSTORE PUSH1 0x20 ADD SWAP1 DUP2 MSTORE PUSH1 0x20 ADD PUSH1 0x0 KECCAK256 SWAP1 POP DUP1 PUSH1 0x5 ADD PUSH1 0x0 DUP7 PUSH20 0xFFFFFFFFFFFFFFFFFFFFFFFFFFFFFFFFFFFFFFFF AND PUSH20 0xFFFFFFFFFFFFFFFFFFFFFFFFFFFFFFFFFFFFFFFF AND DUP2 MSTORE PUSH1 0x20 ADD SWAP1 DUP2 MSTORE PUSH1 0x20 ADD PUSH1 0x0 KECCAK256 SLOAD DUP2 PUSH1 0x6 ADD PUSH1 0x0 DUP8 PUSH20 0xFFFFFFFFFFFFFFFFFFFFFFFFFFFFFFFFFFFFFFFF AND PUSH20 0xFFFFFFFFFFFFFFFFFFFFFFFFFFFFFFFFFFFFFFFF AND DUP2 MSTORE PUSH1 0x20 ADD SWAP1 DUP2 MSTORE PUSH1 0x20 ADD PUSH1 0x0 KECCAK256 SLOAD DUP3 PUSH1 0x7 ADD PUSH1 0x0 DUP9 PUSH20 0xFFFFFFFFFFFFFFFFFFFFFFFFFFFFFFFFFFFFFFFF AND PUSH20 0xFFFFFFFFFFFFFFFFFFFFFFFFFFFFFFFFFFFFFFFF AND DUP2 MSTORE PUSH1 0x20 ADD SWAP1 DUP2 MSTORE PUSH1 0x20 ADD PUSH1 0x0 KECCAK256 PUSH1 0x0 SWAP1 SLOAD SWAP1 PUSH2 0x100 EXP SWAP1 DIV PUSH1 0xFF AND SWAP4 POP SWAP4 POP SWAP4 POP POP SWAP3 POP SWAP3 POP SWAP3 JUMP JUMPDEST PUSH1 0x0 SLOAD DUP2 JUMP JUMPDEST PUSH1 0x3 PUSH1 0x0 SWAP1 SLOAD SWAP1 PUSH2 0x100 EXP SWAP1 DIV PUSH20 0xFFFFFFFFFFFFFFFFFFFFFFFFFFFFFFFFFFFFFFFF AND DUP2 JUMP JUMPDEST PUSH1 0x0 DUP2 SWAP1 POP SWAP2 SWAP1 POP JUMP JUMPDEST PUSH2 0x13A5 DUP2 PUSH2 0x1392 JUMP JUMPDEST DUP3 MSTORE POP POP JUMP JUMPDEST PUSH1 0x0 PUSH1 0x20 DUP3 ADD SWAP1 POP PUSH2 0x13C0 PUSH1 0x0 DUP4 ADD DUP5 PUSH2 0x139C JUMP JUMPDEST SWAP3 SWAP2 POP POP JUMP JUMPDEST PUSH1 0x0 PUSH1 0x40 MLOAD SWAP1 POP SWAP1 JUMP JUMPDEST PUSH1 0x0 DUP1 REVERT JUMPDEST PUSH1 0x0 DUP1 REVERT JUMPDEST PUSH2 0x13E3 DUP2 PUSH2 0x1392 JUMP JUMPDEST DUP2 EQ PUSH2 0x13EE JUMPI PUSH1 0x0 DUP1 REVERT JUMPDEST POP JUMP JUMPDEST PUSH1 0x0 DUP2 CALLDATALOAD SWAP1 POP PUSH2 0x1400 DUP2 PUSH2 0x13DA JUMP JUMPDEST SWAP3 SWAP2 POP POP JUMP JUMPDEST PUSH1 0x0 PUSH1 0x20 DUP3 DUP5 SUB SLT ISZERO PUSH2 0x141C JUMPI PUSH2 0x141B PUSH2 0x13D0 JUMP JUMPDEST JUMPDEST PUSH1 0x0 PUSH2 0x142A DUP5 DUP3 DUP6 ADD PUSH2 0x13F1 JUMP JUMPDEST SWAP2 POP POP SWAP3 SWAP2 POP POP JUMP JUMPDEST PUSH1 0x0 DUP2 ISZERO ISZERO SWAP1 POP SWAP2 SWAP1 POP JUMP JUMPDEST PUSH2 0x1448 DUP2 PUSH2 0x1433 JUMP JUMPDEST DUP2 EQ PUSH2 0x1453 JUMPI PUSH1 0x0 DUP1 REVERT JUMPDEST POP JUMP JUMPDEST PUSH1 0x0 DUP2 CALLDATALOAD SWAP1 POP PUSH2 0x1465 DUP2 PUSH2 0x143F JUMP JUMPDEST SWAP3 SWAP2 POP POP JUMP JUMPDEST PUSH1 0x0 DUP1 PUSH1 0x40 DUP4 DUP6 SUB SLT ISZERO PUSH2 0x1482 JUMPI PUSH2 0x1481 PUSH2 0x13D0 JUMP JUMPDEST JUMPDEST PUSH1 0x0 PUSH2 0x1490 DUP6 DUP3 DUP7 ADD PUSH2 0x13F1 JUMP JUMPDEST SWAP3 POP POP PUSH1 0x20 PUSH2 0x14A1 DUP6 DUP3 DUP7 ADD PUSH2 0x1456 JUMP JUMPDEST SWAP2 POP POP SWAP3 POP SWAP3 SWAP1 POP JUMP JUMPDEST PUSH1 0x0 DUP1 REVERT JUMPDEST PUSH1 0x0 DUP1 REVERT JUMPDEST PUSH1 0x0 PUSH1 0x1F NOT PUSH1 0x1F DUP4 ADD AND SWAP1 POP SWAP2 SWAP1 POP JUMP JUMPDEST PUSH32 0x4E487B7100000000000000000000000000000000000000000000000000000000 PUSH1 0x0 MSTORE PUSH1 0x41 PUSH1 0x4 MSTORE PUSH1 0x24 PUSH1 0x0 REVERT JUMPDEST PUSH2 0x14FE DUP3 PUSH2 0x14B5 JUMP JUMPDEST DUP2 ADD DUP2 DUP2 LT PUSH8 0xFFFFFFFFFFFFFFFF DUP3 GT OR ISZERO PUSH2 0x151D JUMPI PUSH2 0x151C PUSH2 0x14C6 JUMP JUMPDEST JUMPDEST DUP1 PUSH1 0x40 MSTORE POP POP POP JUMP JUMPDEST PUSH1 0x0 PUSH2 0x1530 PUSH2 0x13C6 JUMP JUMPDEST SWAP1 POP PUSH2 0x153C DUP3 DUP3 PUSH2 0x14F5 JUMP JUMPDEST SWAP2 SWAP1 POP JUMP JUMPDEST PUSH1 0x0 PUSH8 0xFFFFFFFFFFFFFFFF DUP3 GT ISZERO PUSH2 0x155C JUMPI PUSH2 0x155B PUSH2 0x14C6 JUMP JUMPDEST JUMPDEST PUSH2 0x1565 DUP3 PUSH2 0x14B5 JUMP JUMPDEST SWAP1 POP PUSH1 0x20 DUP2 ADD SWAP1 POP SWAP2 SWAP1 POP JUMP JUMPDEST DUP3 DUP2 DUP4 CALLDATACOPY PUSH1 0x0 DUP4 DUP4 ADD MSTORE POP POP POP JUMP JUMPDEST PUSH1 0x0 PUSH2 0x1594 PUSH2 0x158F DUP5 PUSH2 0x1541 JUMP JUMPDEST PUSH2 0x1526 JUMP JUMPDEST SWAP1 POP DUP3 DUP2 MSTORE PUSH1 0x20 DUP2 ADD DUP5 DUP5 DUP5 ADD GT ISZERO PUSH2 0x15B0 JUMPI PUSH2 0x15AF PUSH2 0x14B0 JUMP JUMPDEST JUMPDEST PUSH2 0x15BB DUP5 DUP3 DUP6 PUSH2 0x1572 JUMP JUMPDEST POP SWAP4 SWAP3 POP POP POP JUMP JUMPDEST PUSH1 0x0 DUP3 PUSH1 0x1F DUP4 ADD SLT PUSH2 0x15D8 JUMPI PUSH2 0x15D7 PUSH2 0x14AB JUMP JUMPDEST JUMPDEST DUP2 CALLDATALOAD PUSH2 0x15E8 DUP5 DUP3 PUSH1 0x20 DUP7 ADD PUSH2 0x1581 JUMP JUMPDEST SWAP2 POP POP SWAP3 SWAP2 POP POP JUMP JUMPDEST PUSH1 0x0 DUP1 PUSH1 0x40 DUP4 DUP6 SUB SLT ISZERO PUSH2 0x1608 JUMPI PUSH2 0x1607 PUSH2 0x13D0 JUMP JUMPDEST JUMPDEST PUSH1 0x0 DUP4 ADD CALLDATALOAD PUSH8 0xFFFFFFFFFFFFFFFF DUP2 GT ISZERO PUSH2 0x1626 JUMPI PUSH2 0x1625 PUSH2 0x13D5 JUMP JUMPDEST JUMPDEST PUSH2 0x1632 DUP6 DUP3 DUP7 ADD PUSH2 0x15C3 JUMP JUMPDEST SWAP3 POP POP PUSH1 0x20 PUSH2 0x1643 DUP6 DUP3 DUP7 ADD PUSH2 0x13F1 JUMP JUMPDEST SWAP2 POP POP SWAP3 POP SWAP3 SWAP1 POP JUMP JUMPDEST PUSH1 0x0 DUP2 MLOAD SWAP1 POP SWAP2 SWAP1 POP JUMP JUMPDEST PUSH1 0x0 DUP3 DUP3 MSTORE PUSH1 0x20 DUP3 ADD SWAP1 POP SWAP3 SWAP2 POP POP JUMP JUMPDEST PUSH1 0x0 JUMPDEST DUP4 DUP2 LT ISZERO PUSH2 0x1687 JUMPI DUP1 DUP3 ADD MLOAD DUP2 DUP5 ADD MSTORE PUSH1 0x20 DUP2 ADD SWAP1 POP PUSH2 0x166C JUMP JUMPDEST PUSH1 0x0 DUP5 DUP5 ADD MSTORE POP POP POP POP JUMP JUMPDEST PUSH1 0x0 PUSH2 0x169E DUP3 PUSH2 0x164D JUMP JUMPDEST PUSH2 0x16A8 DUP2 DUP6 PUSH2 0x1658 JUMP JUMPDEST SWAP4 POP PUSH2 0x16B8 DUP2 DUP6 PUSH1 0x20 DUP7 ADD PUSH2 0x1669 JUMP JUMPDEST PUSH2 0x16C1 DUP2 PUSH2 0x14B5 JUMP JUMPDEST DUP5 ADD SWAP2 POP POP SWAP3 SWAP2 POP POP JUMP JUMPDEST PUSH2 0x16D5 DUP2 PUSH2 0x1433 JUMP JUMPDEST DUP3 MSTORE POP POP JUMP JUMPDEST PUSH1 0x0 PUSH1 0xC0 DUP3 ADD SWAP1 POP DUP2 DUP2 SUB PUSH1 0x0 DUP4 ADD MSTORE PUSH2 0x16F5 DUP2 DUP10 PUSH2 0x1693 JUMP JUMPDEST SWAP1 POP PUSH2 0x1704 PUSH1 0x20 DUP4 ADD DUP9 PUSH2 0x139C JUMP JUMPDEST PUSH2 0x1711 PUSH1 0x40 DUP4 ADD DUP8 PUSH2 0x139C JUMP JUMPDEST PUSH2 0x171E PUSH1 0x60 DUP4 ADD DUP7 PUSH2 0x139C JUMP JUMPDEST PUSH2 0x172B PUSH1 0x80 DUP4 ADD DUP6 PUSH2 0x16CC JUMP JUMPDEST PUSH2 0x1738 PUSH1 0xA0 DUP4 ADD DUP5 PUSH2 0x16CC JUMP JUMPDEST SWAP8 SWAP7 POP POP POP POP POP POP POP JUMP JUMPDEST PUSH1 0x0 PUSH20 0xFFFFFFFFFFFFFFFFFFFFFFFFFFFFFFFFFFFFFFFF DUP3 AND SWAP1 POP SWAP2 SWAP1 POP JUMP JUMPDEST PUSH1 0x0 PUSH2 0x176E DUP3 PUSH2 0x1743 JUMP JUMPDEST SWAP1 POP SWAP2 SWAP1 POP JUMP JUMPDEST PUSH2 0x177E DUP2 PUSH2 0x1763 JUMP JUMPDEST DUP2 EQ PUSH2 0x1789 JUMPI PUSH1 0x0 DUP1 REVERT JUMPDEST POP JUMP JUMPDEST PUSH1 0x0 DUP2 CALLDATALOAD SWAP1 POP PUSH2 0x179B DUP2 PUSH2 0x1775 JUMP JUMPDEST SWAP3 SWAP2 POP POP JUMP JUMPDEST PUSH1 0x0 DUP1 PUSH1 0x40 DUP4 DUP6 SUB SLT ISZERO PUSH2 0x17B8 JUMPI PUSH2 0x17B7 PUSH2 0x13D0 JUMP JUMPDEST JUMPDEST PUSH1 0x0 PUSH2 0x17C6 DUP6 DUP3 DUP7 ADD PUSH2 0x13F1 JUMP JUMPDEST SWAP3 POP POP PUSH1 0x20 PUSH2 0x17D7 DUP6 DUP3 DUP7 ADD PUSH2 0x178C JUMP JUMPDEST SWAP2 POP POP SWAP3 POP SWAP3 SWAP1 POP JUMP JUMPDEST PUSH1 0x0 PUSH1 0x60 DUP3 ADD SWAP1 POP PUSH2 0x17F6 PUSH1 0x0 DUP4 ADD DUP7 PUSH2 0x139C JUMP JUMPDEST PUSH2 0x1803 PUSH1 0x20 DUP4 ADD DUP6 PUSH2 0x139C JUMP JUMPDEST PUSH2 0x1810 PUSH1 0x40 DUP4 ADD DUP5 PUSH2 0x16CC JUMP JUMPDEST SWAP5 SWAP4 POP POP POP POP JUMP JUMPDEST PUSH2 0x1821 DUP2 PUSH2 0x1763 JUMP JUMPDEST DUP3 MSTORE POP POP JUMP JUMPDEST PUSH1 0x0 PUSH1 0x20 DUP3 ADD SWAP1 POP PUSH2 0x183C PUSH1 0x0 DUP4 ADD DUP5 PUSH2 0x1818 JUMP JUMPDEST SWAP3 SWAP2 POP POP JUMP JUMPDEST PUSH32 0x4F6E6C792061646D696E00000000000000000000000000000000000000000000 PUSH1 0x0 DUP3 ADD MSTORE POP JUMP JUMPDEST PUSH1 0x0 PUSH2 0x1878 PUSH1 0xA DUP4 PUSH2 0x1658 JUMP JUMPDEST SWAP2 POP PUSH2 0x1883 DUP3 PUSH2 0x1842 JUMP JUMPDEST PUSH1 0x20 DUP3 ADD SWAP1 POP SWAP2 SWAP1 POP JUMP JUMPDEST PUSH1 0x0 PUSH1 0x20 DUP3 ADD SWAP1 POP DUP2 DUP2 SUB PUSH1 0x0 DUP4 ADD MSTORE PUSH2 0x18A7 DUP2 PUSH2 0x186B JUMP JUMPDEST SWAP1 POP SWAP2 SWAP1 POP JUMP JUMPDEST PUSH32 0x4D61726B65742072657365740000000000000000000000000000000000000000 PUSH1 0x0 DUP3 ADD MSTORE POP JUMP JUMPDEST PUSH1 0x0 PUSH2 0x18E4 PUSH1 0xC DUP4 PUSH2 0x1658 JUMP JUMPDEST SWAP2 POP PUSH2 0x18EF DUP3 PUSH2 0x18AE JUMP JUMPDEST PUSH1 0x20 DUP3 ADD SWAP1 POP SWAP2 SWAP1 POP JUMP JUMPDEST PUSH1 0x0 PUSH1 0x20 DUP3 ADD SWAP1 POP DUP2 DUP2 SUB PUSH1 0x0 DUP4 ADD MSTORE PUSH2 0x1913 DUP2 PUSH2 0x18D7 JUMP JUMPDEST SWAP1 POP SWAP2 SWAP1 POP JUMP JUMPDEST PUSH32 0x4E6F74207265736F6C7665640000000000000000000000000000000000000000 PUSH1 0x0 DUP3 ADD MSTORE POP JUMP JUMPDEST PUSH1 0x0 PUSH2 0x1950 PUSH1 0xC DUP4 PUSH2 0x1658 JUMP JUMPDEST SWAP2 POP PUSH2 0x195B DUP3 PUSH2 0x191A JUMP JUMPDEST PUSH1 0x20 DUP3 ADD SWAP1 POP SWAP2 SWAP1 POP JUMP JUMPDEST PUSH1 0x0 PUSH1 0x20 DUP3 ADD SWAP1 POP DUP2 DUP2 SUB PUSH1 0x0 DUP4 ADD MSTORE PUSH2 0x197F DUP2 PUSH2 0x1943 JUMP JUMPDEST SWAP1 POP SWAP2 SWAP1 POP JUMP JUMPDEST PUSH32 0x416C726561647920636C61696D65640000000000000000000000000000000000 PUSH1 0x0 DUP3 ADD MSTORE POP JUMP JUMPDEST PUSH1 0x0 PUSH2 0x19BC PUSH1 0xF DUP4 PUSH2 0x1658 JUMP JUMPDEST SWAP2 POP PUSH2 0x19C7 DUP3 PUSH2 0x1986 JUMP JUMPDEST PUSH1 0x20 DUP3 ADD SWAP1 POP SWAP2 SWAP1 POP JUMP JUMPDEST PUSH1 0x0 PUSH1 0x20 DUP3 ADD SWAP1 POP DUP2 DUP2 SUB PUSH1 0x0 DUP4 ADD MSTORE PUSH2 0x19EB DUP2 PUSH2 0x19AF JUMP JUMPDEST SWAP1 POP SWAP2 SWAP1 POP JUMP JUMPDEST PUSH32 0x4E6F2077696E6E696E6773000000000000000000000000000000000000000000 PUSH1 0x0 DUP3 ADD MSTORE POP JUMP JUMPDEST PUSH1 0x0 PUSH2 0x1A28 PUSH1 0xB DUP4 PUSH2 0x1658 JUMP JUMPDEST SWAP2 POP PUSH2 0x1A33 DUP3 PUSH2 0x19F2 JUMP JUMPDEST PUSH1 0x20 DUP3 ADD SWAP1 POP SWAP2 SWAP1 POP JUMP JUMPDEST PUSH1 0x0 PUSH1 0x20 DUP3 ADD SWAP1 POP DUP2 DUP2 SUB PUSH1 0x0 DUP4 ADD MSTORE PUSH2 0x1A57 DUP2 PUSH2 0x1A1B JUMP JUMPDEST SWAP1 POP SWAP2 SWAP1 POP JUMP JUMPDEST PUSH32 0x4E487B7100000000000000000000000000000000000000000000000000000000 PUSH1 0x0 MSTORE PUSH1 0x11 PUSH1 0x4 MSTORE PUSH1 0x24 PUSH1 0x0 REVERT JUMPDEST PUSH1 0x0 PUSH2 0x1A98 DUP3 PUSH2 0x1392 JUMP JUMPDEST SWAP2 POP PUSH2 0x1AA3 DUP4 PUSH2 0x1392 JUMP JUMPDEST SWAP3 POP DUP3 DUP3 ADD SWAP1 POP DUP1 DUP3 GT ISZERO PUSH2 0x1ABB JUMPI PUSH2 0x1ABA PUSH2 0x1A5E JUMP JUMPDEST JUMPDEST SWAP3 SWAP2 POP POP JUMP JUMPDEST PUSH1 0x0 PUSH2 0x1ACC DUP3 PUSH2 0x1392 JUMP JUMPDEST SWAP2 POP PUSH2 0x1AD7 DUP4 PUSH2 0x1392 JUMP JUMPDEST SWAP3 POP DUP3 DUP3 MUL PUSH2 0x1AE5 DUP2 PUSH2 0x1392 JUMP JUMPDEST SWAP2 POP DUP3 DUP3 DIV DUP5 EQ DUP4 ISZERO OR PUSH2 0x1AFC JUMPI PUSH2 0x1AFB PUSH2 0x1A5E JUMP JUMPDEST JUMPDEST POP SWAP3 SWAP2 POP POP JUMP JUMPDEST PUSH32 0x4E487B7100000000000000000000000000000000000000000000000000000000 PUSH1 0x0 MSTORE PUSH1 0x12 PUSH1 0x4 MSTORE PUSH1 0x24 PUSH1 0x0 REVERT JUMPDEST PUSH1 0x0 PUSH2 0x1B3D DUP3 PUSH2 0x1392 JUMP JUMPDEST SWAP2 POP PUSH2 0x1B48 DUP4 PUSH2 0x1392 JUMP JUMPDEST SWAP3 POP DUP3 PUSH2 0x1B58 JUMPI PUSH2 0x1B57 PUSH2 0x1B03 JUMP JUMPDEST JUMPDEST DUP3 DUP3 DIV SWAP1 POP SWAP3 SWAP2 POP POP JUMP JUMPDEST PUSH1 0x0 PUSH2 0x1B6E DUP3 PUSH2 0x1392 JUMP JUMPDEST SWAP2 POP PUSH2 0x1B79 DUP4 PUSH2 0x1392 JUMP JUMPDEST SWAP3 POP DUP3 DUP3 SUB SWAP1 POP DUP2 DUP2 GT ISZERO PUSH2 0x1B91 JUMPI PUSH2 0x1B90 PUSH2 0x1A5E JUMP JUMPDEST JUMPDEST SWAP3 SWAP2 POP POP JUMP JUMPDEST PUSH1 0x0 DUP2 SWAP1 POP SWAP3 SWAP2 POP POP JUMP JUMPDEST POP JUMP JUMPDEST PUSH1 0x0 PUSH2 0x1BB2 PUSH1 0x0 DUP4 PUSH2 0x1B97 JUMP JUMPDEST SWAP2 POP PUSH2 0x1BBD DUP3 PUSH2 0x1BA2 JUMP JUMPDEST PUSH1 0x0 DUP3 ADD SWAP1 POP SWAP2 SWAP1 POP JUMP JUMPDEST PUSH1 0x0 PUSH2 0x1BD3 DUP3 PUSH2 0x1BA5 JUMP JUMPDEST SWAP2 POP DUP2 SWAP1 POP SWAP2 SWAP1 POP JUMP JUMPDEST PUSH32 0x466565207472616E73666572206661696C656400000000000000000000000000 PUSH1 0x0 DUP3 ADD MSTORE POP JUMP JUMPDEST PUSH1 0x0 PUSH2 0x1C13 PUSH1 0x13 DUP4 PUSH2 0x1658 JUMP JUMPDEST SWAP2 POP PUSH2 0x1C1E DUP3 PUSH2 0x1BDD JUMP JUMPDEST PUSH1 0x20 DUP3 ADD SWAP1 POP SWAP2 SWAP1 POP JUMP JUMPDEST PUSH1 0x0 PUSH1 0x20 DUP3 ADD SWAP1 POP DUP2 DUP2 SUB PUSH1 0x0 DUP4 ADD MSTORE PUSH2 0x1C42 DUP2 PUSH2 0x1C06 JUMP JUMPDEST SWAP1 POP SWAP2 SWAP1 POP JUMP JUMPDEST PUSH32 0x424E42207472616E73666572206661696C656400000000000000000000000000 PUSH1 0x0 DUP3 ADD MSTORE POP JUMP JUMPDEST PUSH1 0x0 PUSH2 0x1C7F PUSH1 0x13 DUP4 PUSH2 0x1658 JUMP JUMPDEST SWAP2 POP PUSH2 0x1C8A DUP3 PUSH2 0x1C49 JUMP JUMPDEST PUSH1 0x20 DUP3 ADD SWAP1 POP SWAP2 SWAP1 POP JUMP JUMPDEST PUSH1 0x0 PUSH1 0x20 DUP3 ADD SWAP1 POP DUP2 DUP2 SUB PUSH1 0x0 DUP4 ADD MSTORE PUSH2 0x1CAE DUP2 PUSH2 0x1C72 JUMP JUMPDEST SWAP1 POP SWAP2 SWAP1 POP JUMP JUMPDEST PUSH32 0x4D61726B6574206E6F742063616E63656C6C6564000000000000000000000000 PUSH1 0x0 DUP3 ADD MSTORE POP JUMP JUMPDEST PUSH1 0x0 PUSH2 0x1CEB PUSH1 0x14 DUP4 PUSH2 0x1658 JUMP JUMPDEST SWAP2 POP PUSH2 0x1CF6 DUP3 PUSH2 0x1CB5 JUMP JUMPDEST PUSH1 0x20 DUP3 ADD SWAP1 POP SWAP2 SWAP1 POP JUMP JUMPDEST PUSH1 0x0 PUSH1 0x20 DUP3 ADD SWAP1 POP DUP2 DUP2 SUB PUSH1 0x0 DUP4 ADD MSTORE PUSH2 0x1D1A DUP2 PUSH2 0x1CDE JUMP JUMPDEST SWAP1 POP SWAP2 SWAP1 POP JUMP JUMPDEST PUSH32 0x4E6F7468696E6720746F20776974686472617700000000000000000000000000 PUSH1 0x0 DUP3 ADD MSTORE POP JUMP JUMPDEST PUSH1 0x0 PUSH2 0x1D57 PUSH1 0x13 DUP4 PUSH2 0x1658 JUMP JUMPDEST SWAP2 POP PUSH2 0x1D62 DUP3 PUSH2 0x1D21 JUMP JUMPDEST PUSH1 0x20 DUP3 ADD SWAP1 POP SWAP2 SWAP1 POP JUMP JUMPDEST PUSH1 0x0 PUSH1 0x20 DUP3 ADD SWAP1 POP DUP2 DUP2 SUB PUSH1 0x0 DUP4 ADD MSTORE PUSH2 0x1D86 DUP2 PUSH2 0x1D4A JUMP JUMPDEST SWAP1 POP SWAP2 SWAP1 POP JUMP JUMPDEST PUSH32 0x416C7265616479207265736F6C76656400000000000000000000000000000000 PUSH1 0x0 DUP3 ADD MSTORE POP JUMP JUMPDEST PUSH1 0x0 PUSH2 0x1DC3 PUSH1 0x10 DUP4 PUSH2 0x1658 JUMP JUMPDEST SWAP2 POP PUSH2 0x1DCE DUP3 PUSH2 0x1D8D JUMP JUMPDEST PUSH1 0x20 DUP3 ADD SWAP1 POP SWAP2 SWAP1 POP JUMP JUMPDEST PUSH1 0x0 PUSH1 0x20 DUP3 ADD SWAP1 POP DUP2 DUP2 SUB PUSH1 0x0 DUP4 ADD MSTORE PUSH2 0x1DF2 DUP2 PUSH2 0x1DB6 JUMP JUMPDEST SWAP1 POP SWAP2 SWAP1 POP JUMP JUMPDEST PUSH32 0x4D61726B6574206E6F7420656E64656400000000000000000000000000000000 PUSH1 0x0 DUP3 ADD MSTORE POP JUMP JUMPDEST PUSH1 0x0 PUSH2 0x1E2F PUSH1 0x10 DUP4 PUSH2 0x1658 JUMP JUMPDEST SWAP2 POP PUSH2 0x1E3A DUP3 PUSH2 0x1DF9 JUMP JUMPDEST PUSH1 0x20 DUP3 ADD SWAP1 POP SWAP2 SWAP1 POP JUMP JUMPDEST PUSH1 0x0 PUSH1 0x20 DUP3 ADD SWAP1 POP DUP2 DUP2 SUB PUSH1 0x0 DUP4 ADD MSTORE PUSH2 0x1E5E DUP2 PUSH2 0x1E22 JUMP JUMPDEST SWAP1 POP SWAP2 SWAP1 POP JUMP JUMPDEST PUSH1 0x0 PUSH1 0x20 DUP3 ADD SWAP1 POP PUSH2 0x1E7A PUSH1 0x0 DUP4 ADD DUP5 PUSH2 0x16CC JUMP JUMPDEST SWAP3 SWAP2 POP POP JUMP JUMPDEST PUSH1 0x0 PUSH2 0x1E8B DUP3 PUSH2 0x1392 JUMP JUMPDEST SWAP2 POP PUSH32 0xFFFFFFFFFFFFFFFFFFFFFFFFFFFFFFFFFFFFFFFFFFFFFFFFFFFFFFFFFFFFFFFF DUP3 SUB PUSH2 0x1EBD JUMPI PUSH2 0x1EBC PUSH2 0x1A5E JUMP JUMPDEST JUMPDEST PUSH1 0x1 DUP3 ADD SWAP1 POP SWAP2 SWAP1 POP JUMP JUMPDEST PUSH32 0x4E487B7100000000000000000000000000000000000000000000000000000000 PUSH1 0x0 MSTORE PUSH1 0x22 PUSH1 0x4 MSTORE PUSH1 0x24 PUSH1 0x0 REVERT JUMPDEST PUSH1 0x0 PUSH1 0x2 DUP3 DIV SWAP1 POP PUSH1 0x1 DUP3 AND DUP1 PUSH2 0x1F0F JUMPI PUSH1 0x7F DUP3 AND SWAP2 POP JUMPDEST PUSH1 0x20 DUP3 LT DUP2 SUB PUSH2 0x1F22 JUMPI PUSH2 0x1F21 PUSH2 0x1EC8 JUMP JUMPDEST JUMPDEST POP SWAP2 SWAP1 POP JUMP JUMPDEST PUSH1 0x0 DUP2 SWAP1 POP DUP2 PUSH1 0x0 MSTORE PUSH1 0x20 PUSH1 0x0 KECCAK256 SWAP1 POP SWAP2 SWAP1 POP JUMP JUMPDEST PUSH1 0x0 PUSH1 0x20 PUSH1 0x1F DUP4 ADD DIV SWAP1 POP SWAP2 SWAP1 POP JUMP JUMPDEST PUSH1 0x0 DUP3 DUP3 SHL SWAP1 POP SWAP3 SWAP2 POP POP JUMP JUMPDEST PUSH1 0x0 PUSH1 0x8 DUP4 MUL PUSH2 0x1F8A PUSH32 0xFFFFFFFFFFFFFFFFFFFFFFFFFFFFFFFFFFFFFFFFFFFFFFFFFFFFFFFFFFFFFFFF DUP3 PUSH2 0x1F4D JUMP JUMPDEST PUSH2 0x1F94 DUP7 DUP4 PUSH2 0x1F4D JUMP JUMPDEST SWAP6 POP DUP1 NOT DUP5 AND SWAP4 POP DUP1 DUP7 AND DUP5 OR SWAP3 POP POP POP SWAP4 SWAP3 POP POP POP JUMP JUMPDEST PUSH1 0x0 DUP2 SWAP1 POP SWAP2 SWAP1 POP JUMP JUMPDEST PUSH1 0x0 PUSH2 0x1FD1 PUSH2 0x1FCC PUSH2 0x1FC7 DUP5 PUSH2 0x1392 JUMP JUMPDEST PUSH2 0x1FAC JUMP JUMPDEST PUSH2 0x1392 JUMP JUMPDEST SWAP1 POP SWAP2 SWAP1 POP JUMP JUMPDEST PUSH1 0x0 DUP2 SWAP1 POP SWAP2 SWAP1 POP JUMP JUMPDEST PUSH2 0x1FEB DUP4 PUSH2 0x1FB6 JUMP JUMPDEST PUSH2 0x1FFF PUSH2 0x1FF7 DUP3 PUSH2 0x1FD8 JUMP JUMPDEST DUP5 DUP5 SLOAD PUSH2 0x1F5A JUMP JUMPDEST DUP3 SSTORE POP POP POP POP JUMP JUMPDEST PUSH1 0x0 SWAP1 JUMP JUMPDEST PUSH2 0x2014 PUSH2 0x2007 JUMP JUMPDEST PUSH2 0x201F DUP2 DUP5 DUP5 PUSH2 0x1FE2 JUMP JUMPDEST POP POP POP JUMP JUMPDEST JUMPDEST DUP2 DUP2 LT ISZERO PUSH2 0x2043 JUMPI PUSH2 0x2038 PUSH1 0x0 DUP3 PUSH2 0x200C JUMP JUMPDEST PUSH1 0x1 DUP2 ADD SWAP1 POP PUSH2 0x2025 JUMP JUMPDEST POP POP JUMP JUMPDEST PUSH1 0x1F DUP3 GT ISZERO PUSH2 0x2088 JUMPI PUSH2 0x2059 DUP2 PUSH2 0x1F28 JUMP JUMPDEST PUSH2 0x2062 DUP5 PUSH2 0x1F3D JUMP JUMPDEST DUP2 ADD PUSH1 0x20 DUP6 LT ISZERO PUSH2 0x2071 JUMPI DUP2 SWAP1 POP JUMPDEST PUSH2 0x2085 PUSH2 0x207D DUP6 PUSH2 0x1F3D JUMP JUMPDEST DUP4 ADD DUP3 PUSH2 0x2024 JUMP JUMPDEST POP POP JUMPDEST POP POP POP JUMP JUMPDEST PUSH1 0x0 DUP3 DUP3 SHR SWAP1 POP SWAP3 SWAP2 POP POP JUMP JUMPDEST PUSH1 0x0 PUSH2 0x20AB PUSH1 0x0 NOT DUP5 PUSH1 0x8 MUL PUSH2 0x208D JUMP JUMPDEST NOT DUP1 DUP4 AND SWAP2 POP POP SWAP3 SWAP2 POP POP JUMP JUMPDEST PUSH1 0x0 PUSH2 0x20C4 DUP4 DUP4 PUSH2 0x209A JUMP JUMPDEST SWAP2 POP DUP3 PUSH1 0x2 MUL DUP3 OR SWAP1 POP SWAP3 SWAP2 POP POP JUMP JUMPDEST PUSH2 0x20DD DUP3 PUSH2 0x164D JUMP JUMPDEST PUSH8 0xFFFFFFFFFFFFFFFF DUP2 GT ISZERO PUSH2 0x20F6 JUMPI PUSH2 0x20F5 PUSH2 0x14C6 JUMP JUMPDEST JUMPDEST PUSH2 0x2100 DUP3 SLOAD PUSH2 0x1EF7 JUMP JUMPDEST PUSH2 0x210B DUP3 DUP3 DUP6 PUSH2 0x2047 JUMP JUMPDEST PUSH1 0x0 PUSH1 0x20 SWAP1 POP PUSH1 0x1F DUP4 GT PUSH1 0x1 DUP2 EQ PUSH2 0x213E JUMPI PUSH1 0x0 DUP5 ISZERO PUSH2 0x212C JUMPI DUP3 DUP8 ADD MLOAD SWAP1 POP JUMPDEST PUSH2 0x2136 DUP6 DUP3 PUSH2 0x20B8 JUMP JUMPDEST DUP7 SSTORE POP PUSH2 0x219E JUMP JUMPDEST PUSH1 0x1F NOT DUP5 AND PUSH2 0x214C DUP7 PUSH2 0x1F28 JUMP JUMPDEST PUSH1 0x0 JUMPDEST DUP3 DUP2 LT ISZERO PUSH2 0x2174 JUMPI DUP5 DUP10 ADD MLOAD DUP3 SSTORE PUSH1 0x1 DUP3 ADD SWAP2 POP PUSH1 0x20 DUP6 ADD SWAP5 POP PUSH1 0x20 DUP2 ADD SWAP1 POP PUSH2 0x214F JUMP JUMPDEST DUP7 DUP4 LT ISZERO PUSH2 0x2191 JUMPI DUP5 DUP10 ADD MLOAD PUSH2 0x218D PUSH1 0x1F DUP10 AND DUP3 PUSH2 0x209A JUMP JUMPDEST DUP4 SSTORE POP JUMPDEST PUSH1 0x1 PUSH1 0x2 DUP9 MUL ADD DUP9 SSTORE POP POP POP JUMPDEST POP POP POP POP POP POP JUMP JUMPDEST PUSH1 0x0 PUSH1 0x40 DUP3 ADD SWAP1 POP DUP2 DUP2 SUB PUSH1 0x0 DUP4 ADD MSTORE PUSH2 0x21C0 DUP2 DUP6 PUSH2 0x1693 JUMP JUMPDEST SWAP1 POP PUSH2 0x21CF PUSH1 0x20 DUP4 ADD DUP5 PUSH2 0x139C JUMP JUMPDEST SWAP4 SWAP3 POP POP POP JUMP JUMPDEST PUSH32 0x4D61726B657420636C6F73656400000000000000000000000000000000000000 PUSH1 0x0 DUP3 ADD MSTORE POP JUMP JUMPDEST PUSH1 0x0 PUSH2 0x220C PUSH1 0xD DUP4 PUSH2 0x1658 JUMP JUMPDEST SWAP2 POP PUSH2 0x2217 DUP3 PUSH2 0x21D6 JUMP JUMPDEST PUSH1 0x20 DUP3 ADD SWAP1 POP SWAP2 SWAP1 POP JUMP JUMPDEST PUSH1 0x0 PUSH1 0x20 DUP3 ADD SWAP1 POP DUP2 DUP2 SUB PUSH1 0x0 DUP4 ADD MSTORE PUSH2 0x223B DUP2 PUSH2 0x21FF JUMP JUMPDEST SWAP1 POP SWAP2 SWAP1 POP JUMP JUMPDEST PUSH32 0x4D61726B6574207265736F6C7665640000000000000000000000000000000000 PUSH1 0x0 DUP3 ADD MSTORE POP JUMP JUMPDEST PUSH1 0x0 PUSH2 0x2278 PUSH1 0xF DUP4 PUSH2 0x1658 JUMP JUMPDEST SWAP2 POP PUSH2 0x2283 DUP3 PUSH2 0x2242 JUMP JUMPDEST PUSH1 0x20 DUP3 ADD SWAP1 POP SWAP2 SWAP1 POP JUMP JUMPDEST PUSH1 0x0 PUSH1 0x20 DUP3 ADD SWAP1 POP DUP2 DUP2 SUB PUSH1 0x0 DUP4 ADD MSTORE PUSH2 0x22A7 DUP2 PUSH2 0x226B JUMP JUMPDEST SWAP1 POP SWAP2 SWAP1 POP JUMP JUMPDEST PUSH32 0x42657420616D6F756E74206D757374206265203E203000000000000000000000 PUSH1 0x0 DUP3 ADD MSTORE POP JUMP JUMPDEST PUSH1 0x0 PUSH2 0x22E4 PUSH1 0x16 DUP4 PUSH2 0x1658 JUMP JUMPDEST SWAP2 POP PUSH2 0x22EF DUP3 PUSH2 0x22AE JUMP JUMPDEST PUSH1 0x20 DUP3 ADD SWAP1 POP SWAP2 SWAP1 POP JUMP JUMPDEST PUSH1 0x0 PUSH1 0x20 DUP3 ADD SWAP1 POP DUP2 DUP2 SUB PUSH1 0x0 DUP4 ADD MSTORE PUSH2 0x2313 DUP2 PUSH2 0x22D7 JUMP JUMPDEST SWAP1 POP SWAP2 SWAP1 POP JUMP JUMPDEST PUSH1 0x0 PUSH1 0x40 DUP3 ADD SWAP1 POP PUSH2 0x232F PUSH1 0x0 DUP4 ADD DUP6 PUSH2 0x16CC JUMP JUMPDEST PUSH2 0x233C PUSH1 0x20 DUP4 ADD DUP5 PUSH2 0x139C JUMP JUMPDEST SWAP4 SWAP3 POP POP POP JUMP INVALID LOG2 PUSH5 0x6970667358 0x22 SLT KECCAK256 0xC7 SWAP14 PUSH21 0xD386CA51B433DA70B2CC157019C8404C08214F34F4 PUSH2 0xF232 PUSH21 0x38219F5B64736F6C63430008140033000000000000 "},"methodIdentifiers":{"admin()":"f851a440","bet(uint256,bool)":"9a6d3aaa","claim(uint256)":"379607f5","createMarket(string,uint256)":"883c84c1","emergencyReset()":"16388836","emergencyWithdraw(uint256)":"5312ea8e","getUserBet(uint256,address)":"c03fb87c","marketCount()":"ec979082","markets(uint256)":"b1283e77","resetAfterMarketId()":"0f09749a","resolveMarket(uint256,bool)":"57bde446"}}}}}